:020000040800F2
:10000000280500209D010008E91E00083F16000891
:10001000E71E0008E1070008F91F000800000000C3
:100020000000000000000000000000000D1F00089C
:10003000E3070008000000000B1F00080F1F000866
:10004000B7010008B7010008B7010008B7010008B0
:10005000B7010008B7010008B7010008B7010008A0
:10006000B7010008B7010008B7010008B701000890
:10007000B7010008B7010008B7010008B701000880
:10008000B7010008B7010008B7010008B701000870
:10009000B7010008B7010008B7010008B701000860
:1000A000B7010008B7010008B7010008B701000850
:1000B000B7010008B7010008B7010008B701000840
:1000C000B7010008B7010008B7010008B701000830
:1000D000B7010008B7010008B7010008B701000820
:1000E000B7010008B7010008B7010008B701000810
:1000F000B7010008B7010008B7010008B701000800
:10010000B7010008B7010008B7010008B7010008EF
:10011000B7010008B7010008B7010008B7010008DF
:10012000B7010008B7010008B7010008B7010008CF
:10013000B7010008B7010008B7010008B7010008BF
:10014000B7010008B7010008B7010008B7010008AF
:10015000B7010008B7010008B7010008B70100089F
:10016000B7010008B7010008B7010008B70100088F
:10017000B7010008B7010008B7010008000000003F
:10018000B7010008B7010008DFF80CD000F004FB4D
:1001900000480047DD2F000828050020064880475A
:1001A00006480047FEE7FEE7FEE7FEE7FEE7FEE75C
:1001B000FEE7FEE7FEE7FEE7A51F0008890100084D
:1001C0002DE9F05F0546002092469B46884606468C
:1001D000814640241BE0284641464746224600F01F
:1001E000D0F853465A46C01A914110D311461846CA
:1001F000224600F0B7F82D1A67EB01084F46224659
:100200000120002100F0AEF817EB00094E41201E3E
:10021000A4F10104DFDC484631462A464346BDE8E6
:10022000F09F2DE9FE4F81EA030404F0004421F021
:10023000004100944FF0000B23F0004350EA01040A
:100240005ED052EA03045BD0C3F30A54C1F30A55EB
:100250002C44A4F2F3340194A0FB0254C1F3130123
:1002600041F48011C3F3130343F4801301FB0244F0
:1002700000FB034E840A970A44EA815447EA8357F5
:10028000A4FB076802958D0A05FB07854FEA932CAE
:1002900004FB0C542705029D4FEA065847EA16371F
:1002A000B5EB08056EEB070C870E920E47EA811737
:1002B00042EA8312A7FB0201B6EB0B0164EB0004D8
:1002C0002B0D43EA0C335E1844EB1C50DA465146C2
:1002D000E7FB0201C5F313044FEA0B3343EA14535F
:1002E0004FEA0432019C43EA0603A4F10C04029491
:1002F000009CCDE900B400F09AF803B0BDE8F08F9F
:1003000000200146F9E700F0004230F000400AD03A
:10031000C10D01F56071C0F3160042EA0151C20837
:1003200040071143704700200146704701F0004329
:1003300030B421F0004150EA010206D00A0DA2F5C6
:100340006072C1F31301002A02DC30BC0020704748
:10035000440F44EAC104C100E01830BC00EBC250B5
:1003600000F01FB8202A04DB203A00FA02F1002036
:1003700070479140C2F1200320FA03F319439040E3
:100380007047202A04DB203A21FA02F0002170474E
:1003900021FA02F3D040C2F12002914008431946ED
:1003A00070470029A8BF7047401C490008BF20F0D3
:1003B0000100704710B4B0FA80FC00FA0CF050EA6B
:1003C000010404BF10BC704749B1CCF1200421FAEC
:1003D00004F411FA0CF118BF012121430843A3EBE7
:1003E0000C01CB1D4FEA00614FEA102042BF0020F4
:1003F00010BC704700EBC35010440029A4BF10BCD0
:100400007047401C490008BF20F0010010BC704735
:1004100010B5141E73F1000408DA401C41F100010C
:1004200092185B411A4301D120F0010010BD2DE963
:10043000F04D92469B4611B1B1FA81F202E0B0FA5A
:1004400080F220329046FFF78DFF04460F4640EAC7
:100450000A0041EA0B0153465A46084313D011469D
:1004600053EA010019D0C8F140025046FFF789FF56
:1004700005460E46504659464246FFF773FF08436D
:1004800005D0012004E020463946BDE8F08D00206B
:10049000054346EAE0762C4337430A986305E40AAD
:1004A000A0EB08000022FD0A44EA47540A3002D5B6
:1004B00000200146E9E7010510196941DDE9084519
:1004C00000196941BDE8F04DA2E72DE9FE4F8046D5
:1004D00081EA0300C00F0C46009021F0004123F098
:1004E0000045B8EB0200A94105D24046214690469E
:1004F0001C460B46024623F00040104347D0270D10
:10050000C7F30A00C3F30A510290401A0190402831
:100510006BDAC3F3130040F4801B0098924620B1BD
:100520000023D2EB030A63EB0B0B01985946C0F191
:1005300040025046FFF716FF06460D465046594604
:10054000019A00F03BF910EB08006141002487EAB2
:10055000115284EAE7731A4340D0009A62B3019AB9
:10056000012A4FEA075215DC001B61EB02014FF034
:10057000004202EA0752CDE90042001C41F5801119
:1005800032462B46FFF753FF03B0BDE8F08F4046DD
:100590002146F9E7001B61EB0201001C41F58013C5
:1005A00000185B412018A2F5001747EB030140EA51
:1005B000D570B6196D4111E06D084FEA360645EA6F
:1005C000C0754FEA0752001B61EB0201001C41F5A8
:1005D000801149084FEA30000019514132462B463C
:1005E00003B0BDE8F04FFFF713BF009801224000B1
:1005F0000023D0EB020263EBE073009821464FEA40
:10060000E074B8EB000061EB0401E9E783F000431C
:100610005BE781F0004158E72DE9F04D81EA0304E2
:1006200004F0004B21F0004514464FF0000A23F07F
:10063000004150EA050220D054EA01021DD0C5F362
:100640000A570246C5F31303C1F31300C1F30A5658
:1006500040F4801543F48013A7EB0608101BD64620
:1006600008F2FD3873EB050002D308F1010801E040
:1006700092185B41B8F1000F03DA00200146BDE893
:10068000F08D00204FF48011064684460EE0171BC3
:1006900073EB050705D3121B63EB050306434CEA16
:1006A000010C49084FEA300092185B4150EA0107FB
:1006B000EDD152EA030012D082EA040083EA050178
:1006C000084305D0101BAB4106D20122002306E0EF
:1006D00000224FF0004302E06FF0010253101AEBCA
:1006E00006004CEB085110EB0A0041EB0B01BDE892
:1006F000F04DFFF78DBE2DE9F04D00231A461B1A71
:100700008A4103DB00200146BDE8F08DC1F30A52A7
:10071000C1F3130141F480154FF0000BD10702D152
:1007200000186D41521E0027044640F2FF11384662
:1007300001EB620A3E468046024600204FF48011DB
:10074000FFF71FFEC2197141BB1846EB0100B4EB65
:10075000030C75EB000C04D3E41A65EB0005174697
:100760000E46241908F101006D4180463428E3DD6E
:10077000F91946EB0600091BA84103D24FF0FF32DE
:10078000134601E0002213461BEB070046EB0A511B
:10079000BDE8F04DFFF73CBE064C074D06E0E068B3
:1007A00040F0010394E8070098471034AC42F6D3B8
:1007B000FFF7EEFC7037000890370008202A06DBB0
:1007C000CB17203A41FA02F043EAE07306E041FA1F
:1007D00002F3D040C2F1200291400843194670470D
:1007E000FEE7704770B5044600F0F0F80546601C5F
:1007F00002D004480078044400F0E8F8401BA0420E
:10080000FAD370BD900000202DE9F84FDFF87CB1DD
:1008100000224FF001084FF0030A4FF00F090BF1CF
:10082000040E00BF0B6808FA02F42340A3426ED105
:100830004D68022D01D0122D0ED1D50800EB850C8C
:10084000DCF820505607F70E09FA07F6B5430E6993
:10085000BE402E43CCF82060066855000F790AFA96
:1008600005FC07F0030726EA0C06AF403743076094
:100870004E68012E05D0022E03D0112E01D0122E6B
:100880000ED18668CF6826EA0C06AF4037438760F2
:100890004668A6430C79C4F3001494403443446082
:1008A000C6688C6826EA0C06AC403443C4604C68C9
:1008B000E40065D5364C256845F4804525602468FC
:1008C00022F0030504F480440094324C2E19D6F82B
:1008D000084895072F0F09FA07F5AC432E4DA8429B
:1008E00001D1002524E02D4DA84201D101251FE0B2
:1008F0002B4DA84201D102251AE02A4DA84201D170
:10090000032515E0284DA84202D1042510E037E068
:10091000264DA84201D105250AE0254DA84201D166
:10092000062505E0234DA84201D1072500E0082552
:10093000BD402543C6F80858DBF800405D464E68C8
:100940009C43F60300D51C432C60DEF8004075463E
:100950004E689C43B60300D51C432C600B4D0835F4
:100960002C684E689C43F60200D51C432C60074D52
:100970000C352C684E689C43B60200D51C432C6095
:10098000521C102AFFF44EAFBDE8F88F003C014026
:1009900044380240003001400000024000040240A0
:1009A00000080240000C0240001002400014024007
:1009B00000180240001C024042694A4042617047F0
:1009C0000AB1816170470904FBE7000001488068B3
:1009D000704700009000002070B5040004D094F827
:1009E0003D00002510B106E0012070BD84F83C50A8
:1009F000204600F0B5FA242084F83D002068016804
:100A000021F00101016000F025FC33492268B0FBB0
:100A1000F1F15160314A6368934206D94FF49673FD
:100A200059434FF47A73B1FBF3F12368491C1962FF
:100A3000616891420BD84900B0FBF1F2C2F30B029E
:100A4000042A01D2042019E0B0FBF1F016E0A368FB
:100A50009BB301EBC10202EB0112B0FBF2F242F4D4
:100A60008042120530D04BB301EBC10202EB011101
:100A7000B0FBF1F040F4804040F400402168C861D0
:100A8000D4E90701084321680860D4E9031008434A
:100A900021688860D4E9050108432168C86020689E
:100AA000016841F0010101602564202084F83D00C7
:100AB000256384F83E50002070BD00E006E001EBA5
:100AC0004102B0FBF2F2CCE70120D7E701EB410194
:100AD000B0FBF1F0D0E7000040420F00A08601001B
:100AE0002DE9FF4F81B099468B4604464FF001082F
:100AF000FFF76CFF054694F83D0020287BD11923B1
:100B000001224D492046009500F0A7FE002872D131
:100B100094F83C0001286ED0012084F83C00206845
:100B20000168C90703D1016841F001010160206833
:100B3000016821F400610160242084F83D00002652
:100B400026643E48E06220272068016841F48071F5
:100B500001604B4600224FF001112046009500F045
:100B60007CFE002858D121680BF0FE000861FFF7D9
:100B70002DFF2168054648694969C0F3400094F893
:100B80003D20C1F380214FF0A00A12E0B9F1000F1F
:100B900004D0FFF71BFF411B494501D984F83DA054
:100BA000216848694969C0F3400094F83D20C1F3C9
:100BB0008021084301D1A02AE8D184F83D70206843
:100BC0004169C943890717D4016841F40071016084
:100BD0002068416980691923012217492046009540
:100BE00000F03BFEC0B984F83D7084F83C60002002
:100BF00005B0BDE8F08F1DE0016841F400710160AF
:100C000021686FF480604861192301220A49204657
:100C1000009500F022FE08B10320E9E74146039861
:100C200008F1010881428FD384F83D7084F83C605C
:100C30000120DDE70220DBE7020010000000FFFFDB
:100C40002DE9F84F1F4690468A460446DDF8289065
:100C5000FFF7BCFE054694F83D0020286FD119230C
:100C600001226E492046009500F0F7FD0028F5D1DD
:100C700094F83C00012862D0012084F83C002068F0
:100C80000168C90703D1016841F0010101602068D2
:100C9000016821F400610160222084F83D001020E9
:100CA00084F83E0000262664C4F8248067855C48EA
:100CB000E062608D20852B464A465146204600F072
:100CC000EBFC28B1206C84F83C60042841D04DE056
:100CD000208D544F68B1012814D002282068016883
:100CE00016D041F4806101602068416980690090FC
:100CF00085E02068416981690091016841F40071D3
:100D000001607CE02068016821F480610160F0E707
:100D100021F4806101602068016841F40061E2E72C
:100D2000032849D801280BD0022817D04B460022AF
:100D300039462046009500F090FDB8B92AE06AE0F7
:100D40002A464946204600F0FDFD28B1206C2028A7
:100D50000CD00120BDE8F88F206845E04B4600220A
:100D600039462046009500F078FD08B10320F1E7F0
:100D70002068016841F40071016020680169606ABF
:100D8000421C62620170208D401E2085608D401ED5
:100D90006085E1E72068016821F4806101602068D6
:100DA0000169606A421C62620170208D401E2085CC
:100DB000608D401E6085D1E72A464946204600F0F6
:100DC000C1FD0028C2D120680269606A411C6162CD
:100DD0000270208D401E2085608D401E6085206839
:100DE0004169C94349070AD40169606A421C6262C9
:100DF0000170208D401E2085608D401E6085208DF5
:100E000000288DD1202084F83D0084F83E6084F8CD
:100E10003C6000209EE702209CE7000002001000DA
:100E20000000FFFF040001002DE9F84F1F46904627
:100E30008A460446DDF82890FFF7C8FD064694F878
:100E40003D0020287ED119230122434920460096E7
:100E500000F003FD00287DD194F83C00012879D0F2
:100E6000012084F83C0020680168C90703D10168AB
:100E700041F0010101602068016821F40061016016
:100E8000212084F83D00102084F83E0000252564D0
:100E9000C4F8248067853148E062608D2085334640
:100EA0004A465146204600F067FC28B1206C84F881
:100EB0003C5004284CD00DE02068416980690090C6
:100EC00030E032464946204600F06DFD28B1206CE6
:100ED000042838D00320BDE8F88F606A411C6162A5
:100EE000216800780861608D401E6085208D401E5D
:100EF00080B2208521684A69D24352070BD450B191
:100F0000606A421C626200780861608D401E6085E4
:100F1000208D401E208532464946204600F076FC52
:100F20000028D4D1208D0028CBD154F83D0B016886
:100F300041F400710160202004F81E09E57765770F
:100F40000020C8E706E02068016841F400710160F4
:100F50000120C0E70220BEE7020010000000FFFFF2
:100F600000B500680E4987B0884216D1C0200090B5
:100F7000122001900120029003200390042004908D
:100F800069460848FFF740FC0748016841F4001132
:100F90000160006800F40010059007B000BD00007B
:100FA000005400400004024040380240024881687A
:100FB0000278114481607047900000200B4810B502
:100FC000016841F400710160016841F480610160D1
:100FD000016841F480710160032000F08BF800206B
:100FE00000F006F800F024F8002010BD003C02409C
:100FF00070B50D4D04464FF47A712878B1FBF0F0CE
:101000000A490968B1FBF0F000F001FB48B9102C67
:1010100007D200222146501E00F04CF800206C60E0
:1010200070BD012070BD0000900000209C000020D9
:101030001F4808B5016841F480410160006800F470
:10104000804000901A48001F016841F08051016003
:10105000006800F080500090032000F04BF8002260
:1010600011466FF00B0000F025F8002211466FF0DA
:101070000A0000F01FF8002211466FF0090000F08E
:1010800019F800221146501F00F014F800221146F2
:10109000101F00F00FF800221146901E00F00AF811
:1010A0000022BDE808401146501E00F003B80000C1
:1010B00044380240F0B40E4B1B680C46C3F30223C5
:1010C000C3F10705042D00D90425191D072901D2F4
:1010D000002300E0DB1E012606FA05F1491E21402F
:1010E00099409E40761E16403143F0BC00F0FDBE94
:1010F0000CED00E0064900F0070208684FF6FF0318
:10110000184040EA0220034A10430860704700007C
:101110000CED00E00000FA052DE9F0470E46050051
:1011200065D0DFF81481D8F80000F7B200F00F00A6
:10113000B04207D288F80070D8F8000000F00F0025
:10114000B04254D128683D4C810712D5400703D5E1
:10115000206840F4E05020602878000703D520681C
:1011600040F4604020602068A96820F0F000084347
:1011700020602878C0072DD03049686808390128D8
:1011800012D0022813D0032811D00968890700293A
:101190002DDA216821F0030101432160FFF716FCDD
:1011A000814641F2883A0EE009688903EFE7096851
:1011B0008901ECE7FFF70AFCA0EB0901514502D9D0
:1011C0000320BDE8F0872068696800F00C00B0EBF0
:1011D000810FEFD1D8F80010404601F00F01B14265
:1011E00007D90770006800F00F00B04201D001205D
:1011F000E7E72878400705D52068E96820F4E05043
:10120000084320602878000706D52068296920F463
:10121000604040EAC100206000F02CF82168084AD4
:10122000C1F30311515CC840064908600020FFF774
:10123000DFFE0020C5E70000003C02400838024005
:10124000683600089C0000200148006870470000D4
:101250009C0000200448054900680968044AC1F35D
:101260008221515CC84070479C0000200838024031
:1012700078360008154810B5006810F00C021448C4
:1012800013D01449042A0FD0082A0ED10F4C241F62
:101290002268236802F03F025B0207D52068C0F392
:1012A0008810A0FB010106E0084610BD2168C1F3CB
:1012B0008811A1FB00010023FEF782FF2168C1F322
:1012C0000141491C4900B0FBF1F010BD0838024053
:1012D0000024F40040787D012DE9F84F050076D018
:1012E0002878DFF8F8B2BE4CC00749D0DBF8001010
:1012F0005846C1F38101012908D00068C0F381007C
:1013000002280AD1201D0068400206D5206880030B
:1013100036D568680028E2D032E06868B0F5803FD2
:1013200010D0B0F5A02F206810D020F480302060BD
:10133000206820F4802020606868A0B1FFF746FB99
:1013400006460CE0206840F48030F4E740F480204A
:101350002060F7E7FFF73AFB801B642873D820680A
:101360008003F7D50CE0FFF731FB064605E000BF30
:10137000FFF72CFB801B6428F0D820688003F7D48B
:101380002878DFF8608280074FF000093ED5DBF84F
:101390000010584611F00C0F09D00068C0F381000E
:1013A00002280BD18D48001F0068400206D4206837
:1013B000800715D5E868012809D111E0E868B8B1BF
:1013C0000120C8F80000FFF701FB064605E002E136
:1013D000FFF7FCFA801B0228C0D820688007F7D5E9
:1013E0002068296920F0F80040EAC10020600DE083
:1013F000C8F80090FFF7EAFA064604E0FFF7E6FABD
:10140000801B02281FD820688007F7D4287800079F
:1014100022D5724E744869696C3671B10121016040
:10142000FFF7D4FA074604E0FFF7D0FAC01B022802
:1014300009D830688007F7D50EE0C0F80090FFF7B4
:10144000C5FA074605E083E0FFF7C0FAC01B022893
:101450007ED830688007F7D42878400768D5DFF851
:101460007CA100270AF1380ADAF80000C0000BD48A
:10147000DAF8001041F08051CAF80010DAF80000E4
:10148000012700F080500090584E3068C00510D4FD
:10149000306840F480703060FFF798FA009005E003
:1014A000FFF794FA0099401A022851D83068C00515
:1014B000F6D54A4EA868683601280FD0052830684E
:1014C00010D020F001003060306820F0040030605F
:1014D000A868B8B1FFF77AFA00900FE0306840F0E2
:1014E0000100F4E740F004003060F7E7FFF76EFA20
:1014F0000099411A41F28830814264D830688007EF
:10150000F4D50EE0FFF762FA009007E0FFF75EFA0D
:101510000099411A41F28830814254D830688007DE
:10152000F4D42FB1DAF8001021F08051CAF800107D
:10153000A869C0B3DBF80010C1F3810102294AD0C9
:101540000228484607D0C8F86000FFF73FFA00E0DD
:1015500039E005463AE04746C8F86000FFF736FA3A
:10156000064604E0FFF732FA801B02282BD82068D9
:101570008001F7D4D5E907010843A96A1C4A490844
:1015800002EB01416A6A41EA8211084395F82C1086
:1015900040EA01611148001F016001203866FFF731
:1015A00015FA054605E014E0FFF710FA401B022883
:1015B00009D820688001F7D50BE000BFFFF706FAD5
:1015C000401B022802D90320BDE8F88F2068800163
:1015D000F4D40020F8E70120F6E7000008380240C4
:1015E0000038024000004742800E47420070004031
:1015F0000000FFFF4FF0E0210428086903D020F02D
:1016000004000861704740F00400FAE7704710B525
:10161000401EB0F1807F01D3012010BD4FF0E024C7
:1016200060610F21601700F060FC0020A0610720BE
:101630002061002010BD10B5FFF7E8FF10BDFEE7E8
:1016400010B50CE0641CE4B20A23012221460648CE
:10165000FFF746FA08B9D02C03D0FF2CF2D10024B2
:10166000F0E70248047010BDA40000200000002034
:1016700001684A69D24352050CD46FF480624A6112
:1016800004210164002140F8301F202242730173BD
:1016900001207047002070472DE9F84F0446C06ACA
:1016A0001E4692460D4621680A6842F480620A602E
:1016B000042807D0012805D010F5803F02D0206B08
:1016C000112804D12068016841F4807101604FF055
:1016D00001185346002241462046009600F0BDF80E
:1016E000B8BB206908F10109B0F5804F12D006207F
:1016F000216800EAD51747F0F000086133465246EA
:1017000008F10701204600F0D9F838B1206C042810
:101710002FD01EE0E8B240F001001FE02168E8B2DF
:101720000861334652464946204600F0C7F8002873
:10173000ECD12068416981690091016841F48071B0
:1017400001605346002241462046009600F085F88D
:1017500010B10320BDE8F88F47F0F100216808615F
:10176000334652464946204600F0A8F80028CDD11D
:10177000F0E70120EEE70000F8B50446C06A1E4617
:101780000D461746042807D0012805D010F5803FE4
:1017900002D0206B122804D12068016841F48071C6
:1017A0000160134600224FF001112046009600F020
:1017B00054F8A0B92069B0F5804F12D006202168F6
:1017C00000EAD51040F0F000086133463A460E4971
:1017D000204600F073F838B1206C042811D00320A3
:1017E000F8BD05F0FE0000E0E8B221680861064996
:1017F00033463A46891F204600F060F80028EBD1B6
:10180000F8BD0120F8BD00000800010070B51646C3
:101810000D4604461AE02046FFF72AFF08B10120D2
:1018200070BD681C12D025B1FFF7D0F8801BA8420C
:101830000CD954F8400F40F0200044F81009002063
:101840002060202161732073032070BD20684069EF
:10185000C0434007DFD4002070BD2DE9F0471E468D
:1018600090460D460446C1F30747DDF8209012E08C
:10187000701C10D02EB1FFF7A9F8A0EB0900B04200
:1018800009D9002044F8300F20216173A073207320
:101890000320BDE8F0872068012F0AD0806925EA7F
:1018A00000000004000C06D000214145E0D00020DB
:1018B000EFE74069F3E70121F7E700002DE9F04782
:1018C0009A4691460D46044600264FF02008C1F383
:1018D00007472AE020684069C043400512D42068C9
:1018E000016841F40071016021686FF48060486113
:1018F00004202064266384F83D8084F83C60012045
:10190000BDE8F087B9F1FF3F0FD0B9F1000F05D066
:10191000FFF75CF8A0EB0A01494506D944F8306F9F
:1019200084F80D8026730320EAE72068012F07D092
:10193000D0F8180025EA00000004000CE0D0C9E748
:101940004069F7E72DE9F041002590460E46044630
:10195000202721E04069C043C0060CD421686FF005
:10196000100048612564256384F83D7084F83C507C
:101970000120BDE8F0812EB1FFF728F8A0EB0800A8
:10198000B04209D954F8400F40F0200044F804094F
:10199000677025700320ECE720684169C943490658
:1019A000D8D40020E5E770B516460D4604461AE087
:1019B0002046FFF75DFE08B1012070BD681C12D003
:1019C00025B1FFF703F8801BA8420CD954F8400F4B
:1019D00040F0200044F810090020206020216173AD
:1019E0002073032070BD20684069C0430006DFD427
:1019F000002070BD0B4810B5094901600A494160DB
:101A000000214FF480428160C0E90312416181618D
:101A1000C1610162FEF7E0FF002800D0FEE710BDC3
:101A200000540040A4000020801A060010B52DEDDF
:101A30000A0B2DED108B9CB0B0EE62EAF0EE42EA9C
:101A4000B0EE61FAB0EE41AAF0EE60AAB0EE40BA94
:101A5000FE4CB0EE000AD4ED009A94ED019AD4ED5C
:101A6000028A94ED038A69EE80FA69EE00CA28EED4
:101A700080CA28EE000ACDED10FA29EE09DA8DEDC4
:101A8000140A2FEEA80A68EEA8BA68EE08DA8DEDFF
:101A90000C0A2CEE080A8DED0B0A29EEA90A8DED31
:101AA000110A29EE890A8DED0F0A29EEA80A8DED9B
:101AB0000A0A29EE880A8DED160A29EE280A8DED0C
:101AC000150A29EE080A8DED090A28EE880A8DED1F
:101AD0000D0A2BEE0B0A0AEEAA0A0AEE0A0A10EE0B
:101AE000100AFEF710FC41EC100B00F0B5FE51ECB3
:101AF000100BFEF71BFC00EE100AB5EEC00AF1EE6B
:101B000010FA7DD0B7EE001AC1EE000A2BEE200AC3
:101B10008DED2C0A2AEEA00A8DED2D0A2AEE200A60
:101B20008DED2E0A9DED320ADDED330A20EE000A1E
:101B300000EEA00ADDED340A00EEA00A10EE100A55
:101B4000FEF7E1FB41EC100B00F086FE51EC100BB0
:101B5000FEF7ECFB00EE900AF5EEC00AF1EE10FA8B
:101B60004ED0B7EE001A81EE200ADDED320A20EEEB
:101B700080BADDED330A60EE80AADDED340A6FEE47
:101B80008B1A20EE80AA2FEEAA0ACDED071A8DED52
:101B9000080AB0EE6C0A2FEE8A1A60EE0BFA9DED81
:101BA000110A6BEE000A9DED080A40EE480A2CEE81
:101BB000AA0A41EE280A4BEE0D0A40EE280A2CEE46
:101BC0008A0A40EE080A21EE880ADDED111A0AEEB3
:101BD000A10A4BEE6B0A01EE490A2CEE0A1A4BEEF3
:101BE0006D0A0FEEA80A60EEA00A0AEECD0A0AEE10
:101BF000AB0A01EE080A0AEEED0A40EE000A00E028
:101C00006CE110EE900AFEF77EFB41EC100B00F049
:101C100023FE51EC100BFEF789FB9DED080ADDED6C
:101C2000071A9DED111A20EE090A00EE900AB0EE97
:101C3000002ADDED092A01EEE80ADDED0F1AB0EE0B
:101C4000003ADDED093A9DED156ADDED0D6A0AEE0B
:101C5000010A2CEE2A1A0FEE880AF6EE00FA0AEEB6
:101C60004D0A01EE080AB0EE001A20EE814AB0EEED
:101C7000001A0AEE6B0A0AEE2D0A60EE014A9DED8B
:101C80000B1A20EE285A01EE821A9DED0C2ADDED8A
:101C90002D1A12EE832ADDED2C2A71EE611A32EE36
:101CA000622A7FEEEB2A21EEAC1A72EEED2A0CEEE0
:101CB000421A22EEA03ADDED0A2A73EEE22ADDEDA9
:101CC000163A00EE223A76EE633A9DED0F6A63EE25
:101CD000A03A36EE266A73EE4B2A20EE093AF0EE71
:101CE000006A40EE063A05EE621AF0EE435A9DEDA8
:101CF000096A40EEC85A73EEEA3A05EEA31ADDED22
:101D00000A5A75EE865A3FEECD6A65EEA05A36EE57
:101D10006B6A40EE065A20EEA86A75EECA5A06EEC5
:101D2000251AB0EE41AA9DED141A62EE01AA9DEDAE
:101D3000101A41EE21AAB7EE001A0DEE661AF0EE67
:101D4000006A0BEEE61ADDED2E6A00EE296A62EEFD
:101D50002CBA04EE483A00EEE95A31EE661AF1EE7A
:101D6000006A4CEE21BA29EE267A47EE41AA20EE0F
:101D7000087A43EE22BA47EE22AA45EE23BA46EE8F
:101D800023AA20EE886A04EEC96A46EE25AA9DEDD4
:101D9000146A21EE86BA9DED106A06EE42BA28EE6C
:101DA000A66A06EE41BA24EE681A00EE691A01EE40
:101DB00022BA20EE891AB0EE416A41EE25BA00EE51
:101DC000086A20EEA90A04EEE80A06EE23BA00EE3D
:101DD00025BA2AEE0A0A0AEEAA0A0BEE0B0A0BEE45
:101DE000AB0A10EE100AFEF78EFA41EC100B00F071
:101DF00033FD51EC100BFEF799FA00EE900AB7EEA6
:101E0000001AA4F1180081EE200AD0ED010A6AEE52
:101E1000001A2AEE801A2BEE002A6BEE802A29EE99
:101E20004F0A08EEEE0A08EE4E0A20EE2F0A00EEE8
:101E3000E10A69EE8F1A48EE8E1A48EE6E1A21EE0C
:101E4000AF3A00EEC13A29EEAE1A01E024000020BC
:101E500069EE8E1A09EE4E1A49EE2E1A08EE0F1A86
:101E600048EECF1A21EE2F1A61EEAF1A00EEC21A19
:101E700040EEE21AD0ED020A40EE209A03EE209ADC
:101E800041EE208A01EEA08A29EEA90A09EE090A8C
:101E900008EEA80A08EE080A10EE100AFEF733FA58
:101EA00041EC100B00F0D8FC51EC100BFEF73EFAA1
:101EB00000EE900AB7EE001A81EE200A69EE800A61
:101EC000C4ED000A69EE000AC4ED010A68EE800A5A
:101ED00028EE000AC4ED020A84ED030A1CB0BDEC32
:101EE000108B0AB010BDFEE770470907090E0028E5
:101EF00006DA00F00F0000F1E02080F8141D7047B2
:101F000000F1E02080F8001470477047704710B56A
:101F1000FFF74CF8BDE81040FFF78DBB10B51F4828
:101F200092B00024016841F080510160006800F027
:101F3000805011901A48016841F4804101600068A6
:101F4000069400F48040119002200090012003903C
:101F5000102004906846FFF7BFF900B1FEE70F209C
:101F6000CDE90C040E940F9400210CA81094FFF7F7
:101F7000D3F800B1FEE7FFF767F94FF47A71B0FBD1
:101F8000F1F0FFF744FB0420FFF734FB0022114679
:101F9000501EFFF78FF812B010BD0000403802400D
:101FA000007000401048016841F4700101600F4862
:101FB000016841F0010101600C4A00210832116002
:101FC00002680B4B1A400260031D0A4A1A6002683D
:101FD00022F48022026005480C3001600249580654
:101FE000803908607047000088ED00E0003802404A
:101FF000FFFFF6FE10300024FEE703B40198410015
:10200000009850EAC12018BF04204A0D18BF40F0C4
:10201000010040F2FF72B2EB515F08BF40F00200D6
:10202000012808BF052002B0704700000000000032
:1020300070B5C1482DED020B2DED0E8B82B0119DB8
:1020400025F000449FEDBEDB9FEDBFEB84423EDBFD
:10205000A4F140511098A1F17F6108430FD0BC4812
:10206000844202DC28D1109830B39DED100B02B0F1
:10207000BDEC0E8B02B0BDE8704000F0A6BC9DED3B
:10208000100B53EC1D2B51EC100BFEF7CAF89DED15
:10209000100B41EC180B53EC1E2B51EC100BFEF700
:1020A000C0F853EC182BFEF710FA41EC100B02B0FD
:1020B000BDEC0E8B02B070BD012000F0CDFC02B073
:1020C000BDEC0E8B02B0BDE8704000F095BCA1489D
:1020D0009FEDA18B844256DA9DED100BB4F1795F30
:1020E0000ADA51EC100BFFF788FF042808BF00F054
:1020F00093FC9DED100BDAE753EC102B51EC100B19
:10210000FEF78FF841EC190B95480621B0EE490A0D
:10211000F0EE690A784400F0DCFB53EC192B51EC2B
:10212000100BFEF77EF841EC1A0B8E48B0EE490A10
:10213000F0EE690A0421784400F0CBFB53EC192B34
:1021400051EC100BFEF76DF853EC182BFEF7BDF9B0
:1021500041EC100B51EC1A0B53EC102BFEF75CFA10
:10216000CDE900019DED000B53EC102B9DED100B04
:1021700051EC100BFEF755F89DED101B53EC112B95
:10218000FEF7A3F9D2E09DED100B51EC100B00F01F
:1021900013FE53EC182BFEF73CFA9FED730BCDE9C1
:1021A000000153EC102B9DED000B51EC100BFEF7D2
:1021B00038F841EC190B6E480621B0EE490AF0EEF2
:1021C000690A784400F085FB53EC192B51EC100B95
:1021D000FEF727F841EC1B0B6648B0EE490AF0EE1B
:1021E000690A0421784400F074FB53EC192B51EC7C
:1021F000100BFEF716F853EC182BFEF766F941ECBE
:102200001C0B51EC190B01F0E1F941EC180B5A4889
:102210009FED5BABA04222DC53EC1C2B51EC1B0B63
:10222000FEF7FAF9CDE900019DED000B51EC180B1A
:1022300053EC102BFDF7F5FF53EC182BFEF745F987
:1022400053EC1A2BFDF7EDFF53EC1D2BFEF7DEF9D7
:1022500053EC1E2BFEF7DDF941EC100B5FE08DED2A
:10226000008B002000909DED000B51EC180B53ECFF
:10227000102BFEF72AF99DED000B41EC1E0B53ECE1
:10228000102B51EC100BFDF7CCFF53EC192BFEF784
:10229000C0F953EC1E2BFEF7BFF941EC190B53ECC0
:1022A0001C2B51EC1B0BFEF7B7F941EC1B0B53EC4D
:1022B0001A2B51EC190BFDF7B4FF53EC1D2BFEF755
:1022C000A8F941EC190B53EC1A2B51EC180BFDF744
:1022D000A8FF53EC1B2BFDF7A4FF53EC192BFEF7C3
:1022E00095F99DED000B41EC180B53EC1A2B51ECBA
:1022F000100BFDF796FF9FED249B53EC192BFEF777
:1023000088F941EC100B51EC180B53EC102BFEF735
:102310007DF953EC192BFEF77CF941EC100B002DE5
:102320003FF7C5AE51EC100B81F0004141EC100BB2
:10233000BDE60000000000000000F03F00000000CB
:10234000075C143326A6913C182D4454FB21F93F19
:102350000000F07F0000E03F000000000000F03FC0
:102360006815000076150000000000000000E03F46
:10237000BA140000C81400003333EF3F000000001F
:102380000000000000000040182D4454FB21E93FEC
:1023900070B59B482DED020B2DED068B079D25F0AA
:1023A0000044A04218DC9748844202DC0AD1069817
:1023B00040B19DED060BBDEC068B02B0BDE8704050
:1023C00000F003BB002DCCBF9FED8F0B9FED900B5A
:1023D000BDEC068B02B070BD8F48A04215DD8F4862
:1023E000A042D8BF4FF0FF3458DD9DED060B51ECF5
:1023F000100BFFF702FE042808BF00F00DFB9DED57
:10240000060BBDEC068B02B070BD9DED060B51ECCA
:10241000100B00F0D1FCCDE9060181489FED828BC5
:10242000A0423CDD8248A0421FDD00249FED82AB2C
:102430009DED060B53EC1A2B51EC100BFEF745F8F3
:102440009DED060B41EC190B53EC1A2B51EC100BC4
:10245000FDF7E7FE53EC182BFEF7D8F853EC192BD9
:10246000FEF7DAF8CDE9060149E09DED060B0124FF
:1024700053EC182B51EC100BFEF727F89DED060BD3
:1024800041EC190B53EC182B51EC100BFEF7BEF876
:1024900053EC192BFEF7C0F8CDE906012FE0684890
:1024A000A0421FDD02249FED689B9DED060B53ECBF
:1024B000192B51EC100BFDF7B4FE53EC182BFEF763
:1024C00004F89DED060B41EC180B53EC192B51EC65
:1024D000100BFEF79BF853EC182BFEF79DF8CDE997
:1024E00006010CE09DED060B032453EC102B9FED31
:1024F000580B51EC100BFEF78FF8CDE906019DED5E
:10250000060B53EC102B51EC100BFDF78AFE41EC3F
:10251000180B53EC182BFDF784FE41EC190B4E48B9
:102520000621B0EE490AF0EE690A784400F0D1F9CC
:1025300053EC182B51EC100BFDF773FE41EC180B0C
:102540004648B0EE490AF0EE690A0521784400F0E9
:10255000C0F953EC192B51EC100BFDF762FE41EC66
:10256000100B51EC180B53EC102B002C0EDAFDF76E
:10257000ACFF9DED061B53EC112BFDF752FE9DEDBC
:10258000061B53EC112BFEF744F835E0FDF79DFFD9
:102590009DED061B53EC112BFDF743FE41EC100B98
:1025A0002F48784400EBC40090ED001B51EC100B59
:1025B00053EC112BFEF72AF89DED061B53EC112B63
:1025C000FEF724F841EC100B2648784400EBC400D9
:1025D00090ED001B51EC100B53EC112BFEF719F88A
:1025E00041EC100B002DA2BFBDEC068B02B070BDFC
:1025F00051EC100B81F0004141EC100B01E70000A1
:10260000000010440000F07F182D4454FB21F93FD6
:10261000182D4454FB21F9BF0000DC3F0000203E90
:102620000000F33F00000000000000000000F03F49
:102630000000E63F00000000000000000000004035
:102640000080034000000000000000000000F83F90
:10265000000000000000F0BF0A120000C0110000DE
:102660004A1100000211000070B56B4E2DED040BF5
:102670002DED028B82B0DDF81CC0DDE905235C4244
:102680002CF000411C4341EAD474049D22F0004028
:10269000B44205D86C422C4340EAD474B4420BD9FE
:1026A0009DED061B9DED040B02B0BDEC028B04B04A
:1026B000BDE8704000F093B9ACF14054A4F17F64E0
:1026C0001C430BD0022404EAAC7444EAD2740543E0
:1026D0009FED538B9FED542B07D015E09DED040B20
:1026E00051EC100B00F0BEF942E0002C11BF012CA0
:1026F0009DED040B02B0BDEC028B04BF04B070BDB5
:10270000022C38D0032C3BD00B439FED491B9FED8F
:102710004A0B0AD0B14218D1B04209D121F0804110
:1027200020F08040079105900FE0002A15DA10E0B4
:10273000434B7B44002C08BF93ED000B0DD0012CC4
:1027400010D0022C17D0032C1AD0B0421DD1002A71
:1027500003DAB0EE410AF0EE610A02B0BDEC028B82
:1027600004B070BD93ED000B51EC100B81F00041F3
:1027700041EC100BF1E7B0EE480AF0EE680AECE726
:10278000B0EE420AF0EE620AE7E7401A00153C2874
:10279000C8BF8DED000B19DCBCF1000FBEBF10F1FE
:1027A0003C0F9FED290B8DED000B0FDB9DED060B14
:1027B00053EC102B9DED040B51EC100BFDF72CFF8F
:1027C00000F0FAFA00F04EF9CDE90001002C08BF44
:1027D0009DED000BC1D0012C10D0022C9FED1C0BE5
:1027E00053EC102B9DED000B51EC100B0DD0FDF7B1
:1027F0000DFF53EC182BFDF709FFB9E7019880F0A6
:10280000004001909DED000BA7E7FDF7FFFE53ECA4
:10281000182BFDF7FEFEABE70000F07F0000000084
:10282000182D4454FB210940182D4454FB2109C0A4
:10283000182D4454FB21F9BF182D4454FB21F93FB6
:102840003210000000000000000000000000000046
:10285000075C143326A6A13C00B52DED048BB0EE29
:10286000409AF0EE609A83B051EC190BFDF743FFEC
:1028700041EC180B18EE100A18EE901A8DED008B33
:10288000002818BF0120084320F00040C0F17F60FD
:1028900000F1E040C00F14D019EE101A19EE900AA2
:1028A0008DED009B002918BF0121084320F0004056
:1028B000C0F17F6000F1E040C00F04BF012000F0D4
:1028C000CBF8B0EE480A03B0F0EE680ABDEC048B1A
:1028D00000BD70B504462DED028B4D1E00EBC5000A
:1028E000B0EE408AF0EE608A90ED000B35F0060005
:1028F00017D053EC182B51EC100BFDF792FC41EC68
:10290000100B6D1E04EBC50090ED001B51EC100B7D
:1029100053EC112BFDF7D9FD41EC100B35F00600FF
:10292000E7D1022D36D0042D1CD0062D1CBFBDECE6
:10293000028B70BD53EC182B51EC100BFDF771FCA2
:1029400094ED0A1B53EC112BFDF7BFFD53EC182B34
:10295000FDF767FC94ED081B53EC112BFDF7B5FD5B
:1029600041EC100B53EC182B51EC100BFDF759FCFC
:1029700094ED061B53EC112BFDF7A7FD53EC182B20
:10298000FDF74FFC94ED040B53EC102BFDF79DFD70
:1029900041EC100B53EC182B51EC100BFDF741FCE4
:1029A00094ED021B53EC112BFDF78FFD53EC182B0C
:1029B000FDF737FC94ED001B53EC112BFDF785FD63
:1029C000BDEC028B41EC100B70BD10B553EC102B1D
:1029D00051EC100BFDF779FD41EC100B10BD10B55B
:1029E00053EC112B51EC100BFDF76FFD41EC100B6C
:1029F00010BD0000000000009FED050B10B553EC6A
:102A0000102B51EC100BFDF707FE41EC100B10BD25
:102A100000000000000000009FED050B10B553EC16
:102A2000102B51EC100BFDF7FCFB41EC100B10BD13
:102A3000000000000000001002E008C8121F08C1DA
:102A4000002AFAD170477047002001E001C1121F2F
:102A5000002AFBD170470000014908607047000060
:102A6000A000002010B541EC100BFFF791FC51ECD9
:102A7000100B10BD2DE9F34F002497B0CD4E0694F6
:102A80000394A246A346A14680226B21307800F031
:102A9000D5FD6420FDF7A6FE01226B21307800F001
:102AA000CDFD00226C21307800F0C8FDC820FDF774
:102AB00099FE00223821307800F0C0FD0022232149
:102AC000307800F0BBFD00226B21307800F0B6FDBD
:102AD00000222421307800F0B1FD00226A213078F4
:102AE00000F0ACFD0C226A21307800F0A7FD0F2029
:102AF000FDF778FE01221A21307800F09FFD0022B8
:102B00001921307800F09AFD00221B21307800F066
:102B100095FD00221C21307800F090FD8320169056
:102B20004FF4804540226A21307800F087FD7822FA
:102B30002321307800F082FD2820FDF753FE00228B
:102B40002321307800F07AFD0DAB0222722130781B
:102B500000F0C8FCBDF834000C2140BAB0FBF1F61F
:102B600000272DE093480DAB0C227421007800F073
:102B7000B9FCBDF834007F1C40BA0FFA80FCBDF8E8
:102B80003600E34440BA03B2BDF83800DDF80CC0AB
:102B900040BA02B2BDF83A00634440BA01B2BDF88F
:102BA0003C000C4440BA0FFA80FEBDF83E00069986
:102BB00040BA00B208449144F2440393BFB2069075
:102BC000B742CFD30398069B90FBF6F799FBF6F03C
:102BD0009BFBF6F894FBF6F19AFBF6F293FBF6F307
:102BE000002801DD441B00E044194842C61700EBF1
:102BF0009670860A8DF8346080088DF83500504252
:102C0000C61700EB9670860A8DF8366080088DF83E
:102C100037005842C61700EB9670860A8DF8386068
:102C2000800800EE101A8DF839001698F8EEC00AE8
:102C300000EE100A17985F4EB8EE400A4FF00009F8
:102C4000772180EE801A00EE102A0222F8EEC00AE8
:102C500080ED001A169800EE100A1798B8EE400A98
:102C600080EE801A00EE103A0DABF8EEC00A80ED4F
:102C7000011A169800EE100A1798B8EE400A80EE76
:102C8000801A80ED021A307800F02CFC9DF8340098
:102C90009DF83510000200B2084307900DAB0222E8
:102CA0007A21307800F01EFC9DF834009DF8351034
:102CB000000200B2084308900DAB02227D2130785B
:102CC00000F010FC9DF834009DF83510000200B2B1
:102CD000084301210990CDF85490002007AA15ABB4
:102CE0004FEA010652F820C01CEA010F00D01E5422
:102CF000401C80B20328F5D34FEAE872079908EB2D
:102D00005270A1EBE0000790F917089807EB51719A
:102D1000A0EBE1000890E117099804EB5171A0EBDA
:102D2000E100099000EE108A07989DF85410000AFF
:102D3000F8EEC00A8DF8340000EE105A07980843E8
:102D4000B8EE400A8DF8350008989DF85510000A35
:102D500080EE801A8DF83600089800EE107A08434D
:102D60008DF8370009989DF85610000A8DF8380044
:102D70000998F8EEC00A00EE105A08438DF83900A1
:102D80001898B8EE400A80ED001A189880EE801A64
:102D900000EE104AF8EEC00A00EE105AB8EE400AF3
:102DA00080ED011A80EE801A189880ED021A19B091
:102DB000BDE8F08F0000002082B0CDE9000121F0D5
:102DC000004001909DED000B02B051EC100B7047DC
:102DD0000B48017859B101290CD002290DD00329E3
:102DE00004D19FED080A00BF80ED030A70479FEDF4
:102DF000060AF9E79FED050AF6E79FED050AF3E7F6
:102E00000C0000200000003A00008038000000396B
:102E1000000080390B48417859B101290CD00229B2
:102E20000DD0032904D19FED080A00BF80ED040AEC
:102E300070479FED060AF9E79FED050AF6E79FED5B
:102E4000050AF3E70C00002000007A3D0000FA3B81
:102E500000007A3C0000FA3C0648817839B101292B
:102E600004D19FED050A00BF80ED050A70479FED74
:102E7000030AF9E70C000020FFEBBF3FFFEBBF4068
:102E800038B5044600220A21182000F0D7FB0A209A
:102E9000FDF7A8FC0F220A21182000F0CFFB0A2022
:102EA000FDF7A0FC6B4603221021182000F01AFB4E
:102EB0009DF80000DFED1E0A803800EE100A0022A7
:102EC0000A21F8EEC01AB7EE000AB0EE401A01EE81
:102ED000A01A84ED001A9DF80100803801EE100A56
:102EE000F8EEC11AB0EE401A01EEA01A84ED011AF4
:102EF0009DF80200803801EE100A1820B8EEC11AC1
:102F000001EE200A84ED020A00F098FB0A20FDF78A
:102F100069FC0848C178807841EA0010C2B20A21F1
:102F2000182000F08BFB0A20FDF75CFC38BD000088
:102F30000000803B0C00002070B5264C00226B2165
:102F4000207800F07BFB6420FDF74CFC01226B2114
:102F5000207800F073FB03221A21207800F06EFB2A
:102F600004221921207800F069FB1B21207800F051
:102F7000A1FA194D20F01A00697840EAC100C2B2E6
:102F80001B21207800F05AFB1C21207800F092FAD7
:102F9000297820F0180040EAC100C2B21C21207834
:102FA00000F04CFB1D21207800F084FA00F0F000C6
:102FB00040F003021D21207800F040FB222237213F
:102FC000207800F03BFB2078BDE8704001223821DA
:102FD00000F034BB000000200C0000202DED0A8B17
:102FE00086B0FDF7EBFFFEF799FFFB48016841F063
:102FF00010010160016801F010010591016841F0C4
:10300000020101600068F54C00F00200059000220A
:1030100001212046FDF7D4FC012000900190022000
:1030200002900320039069462046FDF7EDFBFEF772
:10303000E1FCFEF705FB00F0BBFAE949E948FFF7C0
:1030400019FDFFF779FFE848FFF71AFFFFF7C0FE09
:10305000FFF702FFFFF7DEFE9FEDE40AE44880ED94
:10306000000A9FEDE40A80ED010A9FEDE30ADFF814
:103070008C93DFF88CA3DFF88CB380ED020ADFEDD0
:10308000E2AA9FEDE28AE24D3A21287800F012FA96
:10309000C0077CD0DF4800F0F5F9DE49D048B1F92F
:1030A0000020D0ED000A00EE102ADB4AB8EEC01A6C
:1030B00092ED000A51EE000AC9ED000AB1F90220B2
:1030C000D0ED010A01EE102AB8EEC11A51EE000A45
:1030D000CAED000AD0ED020AB1F9040001EE100AAF
:1030E000CE48B8EEC11A51EE000AC0ED000ACC4835
:1030F00000F01AFACA48BB49B0F90020D1ED000A25
:1031000000EE102AC74AB8EEC01A92ED000AC64A6D
:1031100051EE000AC2ED000AB0F90220D1ED010A19
:1031200001EE102AC14AB8EEC11A51EE000AC2EDF2
:10313000000AB0F90400D1ED020A01EE100ABC4801
:10314000B8EEC11A51EE000AC0ED000AB94800F00D
:1031500003FAB84AA648B94BB2F90010D0ED000AFC
:1031600000EE101AB449B8EEC01A91ED000A9E495B
:1031700021EE001AD1ED001A51EE210AC3ED000A2A
:10318000B2F90230D0ED010A01EE103A00E01AE087
:10319000B8EEC11AD1ED011A21EE001A51EE210A42
:1031A000CBED000AD0ED020AB2F9040001EE100ADC
:1031B000A348B8EEC11A21EE000A91ED021A50EEB2
:1031C000010AC0ED000AFDF701FC9E4908609E4916
:1031D0000A68821A00EE102A9C4AF8EEC00A80EEB5
:1031E000AA0A82ED000A0860D5ED010A8F4930EE87
:1031F000800A85ED010AA868401CA8608C489BEDF8
:10320000003A90ED000A9248D0ED000A8C4820EE7A
:10321000200A90ED004A8948C0EE082A91ED000A84
:103220008149D0ED003A20EE200A7C4890ED001A4A
:1032300080EE082A91ED000A20EE200ADAED000A5D
:10324000C0EE081A99ED000AFEF7F0FBFDF7BEFB91
:10325000DFF80082D8F80010401A7F49B0F5FA7FF5
:1032600008607FF710AF01215C48FDF7A5FB00F077
:103270008FF900EE100A7949F8EEC00A08809FED38
:10328000781A7848784C80EE810AF3EE050A30EE21
:10329000200A80ED000A94ED00AAD4ED019A94ED85
:1032A000029A2AEE0A0AD4ED038A09EEA90A09EE67
:1032B000490A08EEE80A10EE100AFDF724F829EE94
:1032C000890A41EC1B0B0AEE280AB0EE00AA20EE98
:1032D0000A0A10EE100AFDF716F841EC100BB0EEDA
:1032E0004B1AF0EE6B1AFFF7BFF951EC100BFDF71C
:1032F0001DF85E4E306094ED010AD4ED030A94EDA2
:10330000021A20EE200AD4ED000A00EEC10A20EED7
:103310000A0A10EE100AFCF7F6FF41EC100BFEF75C
:1033200087FE51EC100BFDF701F800EE100A504F2C
:10333000B1EE400A87ED000A94ED00CAD4ED019A7F
:10334000D4ED028A2CEE0C0A94ED039A09EEE90AF8
:1033500008EEE80A09EE090A10EE100AFCF7D3FF9E
:103360002CEE290A41EC1B0B08EE890A20EE0A0A12
:1033700010EE100AFCF7C7FF41EC100BB0EE4B1A31
:10338000F0EE6B1AFFF770F951EC100BFCF7CEFF63
:1033900097ED001A9FED380ADFED381A00EE900A1B
:1033A00021EE001A334887ED001A96ED001A21EE3F
:1033B000001A20EE800A31EE611A86ED001A80EDC7
:1033C000000AFDF703FB9FED2E0AC8F8000085ED0B
:1033D000010A0020A86056E6303802400010024082
:1033E0001C01002010010020F80000200000EB4329
:1033F000040100200000F0420000FA4258000020C2
:103400005C0000207400002000007A440000344377
:103410000000002044000020180000206000002070
:103420004A0000201C0000206400002068000020EA
:103430006C000020500000202000002070000020C0
:1034400078000020400000203C00002014000020F4
:103450006436000838000020340000207C00002082
:103460005CEFA6438000002024000020880000209C
:10347000840000208C000020E02E6542CDCC5C4111
:10348000000000001CB5044609486B4606223B219B
:10349000007800F027F8BDF8000040BA2080BDF8A1
:1034A000020040BA6080BDF8040040BAA0801CBD94
:1034B000000000203EB504468DF808100A2501469C
:1034C000012302AA06480095FDF7AEFC012301AADC
:1034D000214603480095FDF7B3FB9DF804003EBD6F
:1034E000A4000020F0B585B01D468DF810101446DC
:1034F00007460A260146012304AA0A480096FDF75A
:1035000093FC234601AA394606480096FDF798FB2E
:10351000002001A902E00A5C2A54401CA042FADB08
:1035200005B0F0BDA40000201CB5044609486B4658
:10353000062243210078FFF7D5FFBDF8000040BA0E
:103540002080BDF8020040BA6080BDF8040040BA97
:10355000A0801CBD000000201CB5044602211820DC
:10356000FFF7A8FFC00712D06B46072203211820DF
:10357000FFF7B8FF9DF80600000708D4BDF800006B
:103580002080BDF802006080BDF80400A0801CBD52
:1035900008B506486B46022241210078FFF7A2FFDA
:1035A000BDF8000040BA00B208BD000000000020D5
:1035B000054810B580226B21007800F03FF8BDE887
:1035C00010406420FDF70EB90000002000B52DED7D
:1035D000048B83B041EC190BFDF78DF841EC180B0F
:1035E00018EE100A18EE901A8DED008B002818BF07
:1035F0000120084320F00040C0F17F6000F1E0406E
:10360000C00F14D019EE101A19EE900A8DED009B20
:10361000002918BF0121084320F00040C0F17F605D
:1036200000F1E040C00F04BF0120FFF715FA51EC94
:10363000180B03B0BDEC048B00BD00001CB50A20C4
:1036400000908DF8041005488DF8052002230178BC
:1036500001AA0348FDF7E8FB1CBD000000000020A4
:10366000A4000020DB0F4940000000000000000023
:103670000102030406070809000000000102030418
:10368000555555555555C53F7D6FEB0312D6D4BFE3
:103690005544880E55C1C93F3B8F68B52882A4BFE9
:1036A00088B20175E0EF493F09F7FD0DE13D023FAA
:1036B0004B2D8A1C273A03C0C88A599CE52A004032
:1036C00059018D1B6C06E6BF82922EB1C5B8B33F7F
:1036D0004FBB610567ACDD3F182D4454FB21E93F2A
:1036E0009BF681D20B73EF3F182D4454FB21F93F19
:1036F000E2652F227F2B7A3C075C143326A6813C9F
:10370000BDCBF07A8807703C075C143326A6913C49
:10371000C4EB98999999C9BF711623FEC671BCBFB5
:103720006D9A74AFF2B0B3BF9AFDDE522DDEADBF1D
:103730002F6C6A2C44B4A2BF0D5555555555D53F35
:10374000FF8300922449C23F6E204CC5CD45B73F50
:10375000513DD0A0660DB13FEB0D76244B7BA93FC8
:1037600011DA22E33AAD903F0000000000000000B3
:103770009037000800000020A4000000382A00084C
:1037800034380008A400002084040000482A0008FF
:103790000000000000000000000000000000010622
:1037A000942A683F000000000000000000000000B4
:1037B000000000000000803F00000000000000004A
:1037C00000000000000000000000000000000000F9
:1037D00000000000000000000000000000000000E9
:1037E00000000000000000000000000000000000D9
:1037F00000000000000000000000000000000000C9
:1038000000000000000000000000000000000000B8
:1038100000000000000000000000000000000000A8
:103820000100000010000000000000000024F4006F
:043830000000000094
:040000050800018965
:00000001FF
