:020000040800F2
:10000000C00400209D010008D71300085713000802
:10001000D51300082D040008E914000800000000B2
:10002000000000000000000000000000FB130008BA
:10003000E104000800000000F9130008FD130008A7
:10004000B7010008B7010008B7010008B7010008B0
:10005000B7010008B7010008B7010008B7010008A0
:10006000B7010008B7010008B7010008B701000890
:10007000B7010008B7010008B7010008B701000880
:10008000B7010008B7010008B7010008B701000870
:10009000B7010008B7010008B7010008B701000860
:1000A000B7010008B7010008B7010008B701000850
:1000B000B7010008B7010008B7010008B701000840
:1000C000B7010008B7010008B7010008B701000830
:1000D000B7010008B7010008B7010008B701000820
:1000E000B7010008B7010008B7010008B701000810
:1000F000B7010008B7010008B7010008B701000800
:10010000B7010008B7010008B7010008B7010008EF
:10011000B7010008B7010008B7010008B7010008DF
:1001200031040008B7010008B7010008B701000852
:10013000B7010008B7010008B7010008B7010008BF
:10014000B7010008B7010008B7010008B7010008AF
:10015000B7010008B7010008B7010008B70100089F
:10016000B7010008B7010008B7010008B70100088F
:10017000B7010008B7010008B7010008000000003F
:10018000B7010008B7010008DFF80CD000F068F8EC
:10019000004800470D150008C004002006488047AD
:1001A00006480047FEE7FEE7FEE7FEE7FEE7FEE75C
:1001B000FEE7FEE7FEE7FEE7951400088901000868
:1001C0002DE9F05F0546002092469B46884606468C
:1001D000814640241BE0284641464746224600F01F
:1001E0002FF853465A46C01A914110D3114618466B
:1001F000224600F016F82D1A67EB01084F462246FA
:100200000120002100F00DF817EB00094E41201EDF
:10021000A4F10104DFDC484631462A464346BDE8E6
:10022000F09F202A04DB203A00FA02F100207047F8
:100230009140C2F1200320FA03F319439040704724
:10024000202A04DB203A21FA02F00021704721FA2B
:1002500002F3D040C2F12002914008431946704792
:10026000064C074D06E0E06840F0010394E8070003
:1002700098471034AC42F6D3FFF78AFF7C1500088C
:100280009C15000810B50146806B026C12F0500FEF
:1002900005D0806BC26CBDE8104008461047016C69
:1002A00041F40071016401688A6812F0405F17D15F
:1002B0008269AAB9CA6A12F4700F02D08A6852051C
:1002C0000ED44A6822F020024A60016C21F4807149
:1002D0000164016CC90403D4016C41F001010164A3
:1002E00000F0A6F910BD10B5806B40210164416C8F
:1002F00041F00401416400F09DF910BD10B5806B20
:1003000000F097F910BD0000454910B54A6822F485
:1003100040324A604A6843681A434A6001684A6842
:1003200022F480724A6001684A68036942EA032243
:100330004A6001684A6822F040724A6001684A686F
:1003400083681A434A6001688A6822F400628A60FE
:1003500001688A68C3681A438A60816A6FF07062B4
:10036000D14201688A6822F070628A6001688A68F6
:100370000CD0836A1A438A6001688A6822F040526E
:100380008A6001688A68C36A1A4301E022F0405219
:100390008A6001688A6822F002028A6001688A68BD
:1003A000836942EA43028A60016A002901684A6857
:1003B0000FD042F400624A6001684A6822F4604249
:1003C0004A6001684A68174C436A04EB43331A4396
:1003D00001E022F400624A600168CA6A22F47002F5
:1003E000CA620168CA6A838B0F4C04EB03531A4339
:1003F000CA6201688A6822F400728A6001688A68A9
:10040000036B42EA43228A6001688A6822F48062B0
:100410008A6001688A68406942EA8020886010BD6D
:100420000023014000E0FFFF0000F0FFFEE70000B6
:10043000014800F0F7B900005C00002001681823B3
:10044000CAB2103AB2FBF3F2054B6FF30901032A6B
:100450009B5CC36500D9091D816508467047000093
:100460006415000810B5014600208B698A6A4FF0B8
:10047000C07453B1B3F5005F15D072B1012A0CD02E
:10048000022A0AD0032A09D104E01AB1012A06D0AF
:10049000022A03D1C96AC90100D5012010BDC96A69
:1004A000A142FAD010BD002AF7D0012AF2D0022AC8
:1004B000F3D0032AF3D010BD30B50468256825F4C5
:1004C00080252560046863608368402B036803D03F
:1004D00099600068C26030BD9A600068C16030BD3C
:1004E0007047000078B50024009490F83C20012A61
:1004F00019D0012280F83C200A6807230568092AE0
:1005000013D9EE680A3A02EB420293409E43EE6032
:100510000B788A680A3B03EB43039A400368DD6863
:100520002A43DA6010E0022078BD2E6902EB420215
:1005300093409E432E610B788A6803EB43039A40F5
:1005400003681D692A431A614A681F23072A13D2C8
:1005500005686E6B521E02EB820293409E436E63EF
:100560000B790A885B1E92B203EB83039A400368FF
:100570005D6B2A435A6327E005680D2A12D22E6B61
:10058000D21F02EB820293409E432E630B790A88AE
:10059000DB1F92B203EB83039A4003681D6B2A436F
:1005A0001A6311E0EE6A0D3A02EB820293409E4319
:1005B000EE620B790A880D3B92B203EB83039A40FB
:1005C0000368DD6A2A43DA62164B0568144A9D42C5
:1005D00006D10D68122D03D1556845F4800555608C
:1005E00005689D4218D10B68102B01D0112B13D137
:1005F000536843F400035360096810290CD10A4979
:100600000A4A0968B1FBF2F101EB8101490000E0FF
:10061000491E00910029FBD180F83C40002078BDA4
:1006200000230140002001401000002040420F0044
:1006300070477047704770B504004FF0000503D055
:10064000206C002610B107E0012070BD666484F8BC
:100650003C60204600F01AF8206CC00610D4206CD4
:1006600020F4885040F0020020642046FFF74CFE42
:100670006664206C20F0020040F00100206400E07D
:10068000012584F83C60284670BD000070B5064620
:100690000068184986B088422AD1174800250168A9
:1006A00041F4807101600068694600F48070059033
:1006B000072000900320CDE90105104800F028FA3A
:1006C000104C0F48C4E900050015A560C4E90350AB
:1006D00080106561C4E9065025622046656200F01D
:1006E00071F918B1772108A000F0FFFEB463A6638A
:1006F00006B070BD002001404438024000000240B6
:10070000106402405C0000202E2E2F5372632F7362
:10071000746D3332663478785F68616C5F6D7370C6
:100720002E630000F8B50E4600210446009190F8B3
:100730003C00012807D0012084F83C002068836831
:10074000DB0702D011E00220F8BD836843F001030B
:1007500083602D482D4B0068B0FBF3F000EB4000A8
:1007600000E0401E00900028FBD120688368DB0772
:1007700048D0236C40F20165AB4343F4807323649B
:100780004068400505D5206C20F4005040F48050AE
:100790002064206CC00404D5606C20F00600606406
:1007A00000E0616484F83C10A16B1A48184DC863DE
:1007B000A16B19480864A16B1848C86421686FF0E0
:1007C000220008602068416841F080614160206833
:1007D000816841F4807181602168134632464C3152
:1007E000A06B00F059F96868C006206802D00C4977
:1007F000884207D1816811F0405F03D1816841F0E0
:10080000804181600020F8BD1000002040420F00B0
:100810000023014085020008FD020008E7020008ED
:10082000002001402DE9F84304464FF00009CDF8BF
:10083000009063484FF41651A56D0068B0FBF1F7C6
:100840002E6894F85C10082000FA01F131420FD0B4
:1008500021680A6852070BD50A6822F004020A6070
:1008600094F85C108840A860606D40F001006065FD
:1008700094F85C104FF0010808FA01F0304208D0FB
:1008800021684969090604D5A860606D40F002003E
:10089000606594F85C1004208840304208D02168DC
:1008A0000968890704D5A860606D40F004006065A0
:1008B00094F85C1010208840304218D021680968F4
:1008C000090714D5A86020680168490304D50068A9
:1008D000000308D5A16C07E00168C90503D40168CD
:1008E00021F008010160216C09B12046884794F885
:1008F0005C1020208840304231D021680968C90648
:100900002DD5A86094F8350005282068016806D028
:10091000490347D5006800031DD4616C1CE021F039
:10092000160101602068416921F080014161206C5D
:1009300008B9A06C20B12068016821F008010160AD
:1009400094F85C103F208840A86084F8349084F8C4
:100950003580216D1FE0E16B09B120468847606D4D
:1009600000282BD0606DC00714D0052084F8350016
:100970002068016821F0010101600098401C00908E
:10098000B84203D820680068C007F6D184F83490D4
:1009900084F83580E16C002910D001B02046BDE814
:1009A000F04308470168C905D5D4016821F010015A
:1009B000016084F8349084F83580CCE7BDE8F88392
:1009C000100000202DE9F041044600F079F90646B8
:1009D0005CB1002584F83450022084F8350020688A
:1009E000016821F0010101600DE00120BDE8F08106
:1009F00000F066F9801B052805D9202060650320DA
:100A000084F83500F2E720680068C007F0D122685A
:100A1000116820480140D4E901031843D4E90336A2
:100A20003343184363691843A3691843E3691843C0
:100A3000236A18430843616A042903D1D4E90B13DC
:100A400019430843106020684069666A20F0070176
:100A500030460E43012704280CD1A06A0643E06A01
:100A600040B12046FFF7FEFC20B14020606584F8CD
:100A70003570BAE7206846612046FFF7DFFC94F83E
:100A80005C203F2191408160656584F835700020CD
:100A9000ACE700003F8010F02DE9F0410446866D80
:100AA00090F83400002501280DD0012084F834008E
:100AB00094F835700020012F07D084F83400022507
:100AC0002846BDE8F0810220FBE7022784F8357054
:100AD00060652046FFF7F0FC94F85C103F208840EA
:100AE000B0602068016841F016010160206841692A
:100AF00041F080014161206C20B12068016841F023
:100B0000080101602068016841F001010160D7E738
:100B10002DE9F84FDFF87CB100224FF001084FF0CB
:100B2000030A4FF00F090BF1040E00BF0B6808FA1F
:100B300002F42340A3426ED14D68022D01D0122D44
:100B40000ED1D50800EB850CDCF820505607F70EC7
:100B500009FA07F6B5430E69BE402E43CCF8206073
:100B6000066855000F790AFA05FC07F0030726EA24
:100B70000C06AF40374307604E68012E05D0022EA9
:100B800003D0112E01D0122E0ED18668CF6826EA2E
:100B90000C06AF40374387604668A6430C79C4F320
:100BA0000014944034434460C6688C6826EA0C06FE
:100BB000AC403443C4604C68E40065D5364C2568CD
:100BC00045F480452560246822F0030504F4804440
:100BD0000094324C2E19D6F8084895072F0F09FAC1
:100BE00007F5AC432E4DA84201D1002524E02D4D40
:100BF000A84201D101251FE02B4DA84201D10225B9
:100C00001AE02A4DA84201D1032515E0284DA8423B
:100C100002D1042510E037E0264DA84201D1052578
:100C20000AE0254DA84201D1062505E0234DA84242
:100C300001D1072500E00825BD402543C6F8085826
:100C4000DBF800405D464E689C43F60300D51C432C
:100C50002C60DEF8004075464E689C43B60300D514
:100C60001C432C600B4D08352C684E689C43F602E3
:100C700000D51C432C60074D0C352C684E689C43F6
:100C8000B60200D51C432C60521C102AFFF44EAF54
:100C9000BDE8F88F003C014044380240003001407C
:100CA000000002400004024000080240000C024024
:100CB000001002400014024000180240001C0240D4
:100CC00001488068704700000400002002488168E5
:100CD0000278114481607047040000200B4810B571
:100CE000016841F400710160016841F480610160B4
:100CF000016841F480710160032000F097F8002042
:100D000000F006F800F024F8002010BD003C02407E
:100D100070B50D4D04464FF47A712878B1FBF0F0B0
:100D20000A490968B1FBF0F000F0FDFA48B9102C4F
:100D300007D200222146501E00F058F800206C60B7
:100D400070BD012070BD00000400002010000020D4
:100D50001F4808B5016841F480410160006800F453
:100D6000804000901A48001F016841F080510160E6
:100D7000006800F080500090032000F057F8002237
:100D800011466FF00B0000F031F8002211466FF0B1
:100D90000A0000F02BF8002211466FF0090000F065
:100DA00025F800221146501F00F020F800221146BD
:100DB000101F00F01BF800221146901E00F016F8DC
:100DC0000022BDE808401146501E00F00FB8000098
:100DD0004438024000F01F02012191404009800088
:100DE00000F1E020C0F8001170470000F0B40E4B95
:100DF0001B680C46C3F30223C3F10705042D00D979
:100E00000425191D072901D2002300E0DB1E01265D
:100E100006FA05F1491E214099409E40761E164073
:100E20003143F0BC00F0D8BA0CED00E0064900F008
:100E3000070208684FF6FF03184040EA0220034A01
:100E400010430860704700000CED00E00000FA0558
:100E50002DE9F0470E46050065D0DFF81481D8F87B
:100E60000000F7B200F00F00B04207D288F800701F
:100E7000D8F8000000F00F00B04254D128683D4C73
:100E8000810712D5400703D5206840F4E050206068
:100E90002878000703D5206840F46040206020686F
:100EA000A96820F0F000084320602878C0072DD002
:100EB000304968680839012812D0022813D0032865
:100EC00011D00968890700292DDA216821F0030172
:100ED00001432160FFF7F4FE814641F2883A0EE0BB
:100EE00009688903EFE709688901ECE7FFF7E8FE85
:100EF000A0EB0901514502D90320BDE8F087206825
:100F0000696800F00C00B0EB810FEFD1D8F8001049
:100F1000404601F00F01B14207D90770006800F0A8
:100F20000F00B04201D00120E7E72878400705D53F
:100F30002068E96820F4E050084320602878000722
:100F400006D52068296920F4604040EAC10020608D
:100F500000F01CF82168084AC1F30311515CC84035
:100F6000064908600020FFF7D3FE0020C5E7000017
:100F7000003C0240083802406C15000810000020B8
:100F8000014800687047000010000020154810B5A7
:100F9000006810F00C02144813D01449042A0FD032
:100FA000082A0ED10F4C241F2268236802F03F024A
:100FB0005B0207D52068C0F38810A0FB010106E0A2
:100FC000084610BD2168C1F38811A1FB0001002370
:100FD000FFF7F6F82168C1F30141491C4900B0FB55
:100FE000F1F010BD083802400024F40040787D0183
:100FF0002DE9F84F050076D02878DFF8F8B2BE4C1E
:10100000C00749D0DBF800105846C1F3810101291F
:1010100008D00068C0F3810002280AD1201D0068B2
:10102000400206D52068800336D568680028E2D0E3
:1010300032E06868B0F5803F10D0B0F5A02F20688E
:1010400010D020F480302060206820F480202060C0
:101050006868A0B1FFF734FE06460CE0206840F453
:101060008030F4E740F480202060F7E7FFF728FEA7
:10107000801B642873D820688003F7D50CE0FFF745
:101080001FFE064605E000BFFFF71AFE801B64281E
:10109000F0D820688003F7D42878DFF860828007D2
:1010A0004FF000093ED5DBF80010584611F00C0F48
:1010B00009D00068C0F3810002280BD18D48001FC1
:1010C0000068400206D42068800715D5E86801282A
:1010D00009D111E0E868B8B10120C8F80000FFF7B5
:1010E000EFFD064605E002E1FFF7EAFD801B02285E
:1010F000C0D820688007F7D52068296920F0F8005B
:1011000040EAC10020600DE0C8F80090FFF7D8FD6C
:10111000064604E0FFF7D4FD801B02281FD8206894
:101120008007F7D42878000722D5724E7448696981
:101130006C3671B101210160FFF7C2FD074604E082
:10114000FFF7BEFDC01B022809D830688007F7D51D
:101150000EE0C0F80090FFF7B3FD074605E083E01E
:10116000FFF7AEFDC01B02287ED830688007F7D499
:101170002878400768D5DFF87CA100270AF1380AF3
:10118000DAF80000C0000BD4DAF8001041F080510A
:10119000CAF80010DAF80000012700F08050009033
:1011A000584E3068C00510D4306840F4807030600C
:1011B000FFF786FD009005E0FFF782FD0099401AD9
:1011C000022851D83068C005F6D54A4EA86868365E
:1011D00001280FD00528306810D020F001003060C1
:1011E000306820F004003060A868B8B1FFF768FDEF
:1011F00000900FE0306840F00100F4E740F0040098
:101200003060F7E7FFF75CFD0099411A41F2883042
:10121000814264D830688007F4D50EE0FFF750FDB6
:10122000009007E0FFF74CFD0099411A41F2883029
:10123000814254D830688007F4D42FB1DAF8001016
:1012400021F08051CAF80010A869C0B3DBF8001083
:10125000C1F3810102294AD00228484607D0C8F8C4
:101260006000FFF72DFD00E039E005463AE0474613
:10127000C8F86000FFF724FD064604E0FFF720FDF4
:10128000801B02282BD820688001F7D4D5E90701FC
:101290000843A96A1C4A490802EB01416A6A41EA0B
:1012A0008211084395F82C1040EA01611148001F93
:1012B000016001203866FFF703FD054605E014E0F4
:1012C000FFF7FEFC401B022809D820688001F7D5F3
:1012D0000BE000BFFFF7F4FC401B022802D90320FB
:1012E000BDE8F88F20688001F4D40020F8E70120E1
:1012F000F6E700000838024000380240000047428C
:10130000800E4742007000400000FFFF4FF0E021D8
:101310000428086903D020F004000861704740F0F9
:101320000400FAE7704710B5401EB0F1807F01D38A
:10133000012010BD4FF0E02460610F21601700F024
:101340004BF80020A06107202061002010BD10B5DF
:10135000FFF7E8FF10BDFEE77FB51C481A490025DE
:1013600001604FF440314160012405624FF000718B
:10137000046181601649C0E90A150326C560C0E909
:10138000064604634461FFF756F900B1FEE7072003
:101390000095CDE9014069460C48FFF7A3F800B17C
:1013A000FEE700940224694608480194FFF79AF882
:1013B00000B1FEE7CDE9004669460448FFF792F820
:1013C000002800D0FEE77FBD00200140140000206F
:1013D0000100000FFEE770470907090E002806DA32
:1013E00000F00F0000F1E02080F8141D704700F1BC
:1013F000E02080F8001470477047704710B5FFF781
:1014000065FCBDE81040FFF7A2BF000010B51F4803
:1014100092B00024016841F080510160006800F042
:10142000805011901A48016841F4804101600068C1
:10143000069400F480401190022000900120039057
:10144000102004906846FFF7D3FD00B1FEE70F209F
:10145000CDE90C040E940F9400210CA81094FFF712
:10146000F7FC00B1FEE7FFF78BFD4FF47A71B0FB9C
:10147000F1F0FFF758FF0420FFF748FF0022114664
:10148000501EFFF7B3FC12B010BD00004038024000
:10149000007000401048016841F4700101600F487D
:1014A000016841F0010101600C4A0021083211601D
:1014B00002680B4B1A400260031D0A4A1A60026858
:1014C00022F48022026005480C300160024958066F
:1014D000803908607047000088ED00E00038024065
:1014E000FFFFF6FE10300024FEE7FEE702E008C82A
:1014F000121F08C1002AFAD170477047002001E08E
:1015000001C1121F002AFBD17047000008B5FFF788
:10151000E5FBFFF77BFF1048016841F00101016026
:10152000016801F001010091016841F4800101604E
:101530000068002200F48000009011463820FFF778
:1015400055FC3820FFF746FCFFF706FF032203494E
:101550000348FFF7E7F8FEE73038024000000020BC
:1015600014000020000610160006101600000000EF
:101570000000000001020304060708099C1500088A
:101580000000002014000000EC140008B015000852
:1015900014000020AC040000FC140008000000004F
:1015A0000100000010000000000000000024F40012
:040000050800018965
:00000001FF
