:020000040800F2
:10000000900400209D010008571200087D1100088F
:100010005512000885020008FF16000800000000C5
:100020000000000000000000000000007B1200083B
:100030008702000800000000791200087D12000805
:10004000B7010008B7010008B7010008B7010008B0
:10005000B7010008B7010008B7010008B7010008A0
:10006000B7010008B7010008B7010008B701000890
:10007000B7010008B7010008B7010008B701000880
:10008000B7010008B7010008B7010008B701000870
:10009000B7010008B7010008B7010008B701000860
:1000A000B7010008B7010008B7010008B701000850
:1000B0007D130008B7010008B7010008B701000868
:1000C000B7010008B7010008B7010008B701000830
:1000D000B7010008B7010008B7010008B701000820
:1000E000B7010008B7010008B7010008B701000810
:1000F000B7010008B7010008B7010008B701000800
:10010000B7010008B701000889130008B70100080B
:10011000B7010008B7010008B7010008B7010008DF
:10012000B7010008B7010008B7010008B7010008CF
:10013000B7010008B7010008B7010008B7010008BF
:10014000B7010008B7010008B7010008B7010008AF
:10015000B7010008B7010008B7010008B70100089F
:10016000B7010008B7010008B7010008B70100088F
:10017000B7010008B7010008B7010008000000003F
:10018000B7010008B7010008DFF80CD000F068F8EC
:1001900000480047211700089004002006488047C7
:1001A00006480047FEE7FEE7FEE7FEE7FEE7FEE75C
:1001B000FEE7FEE7FEE7FEE72913000889010008D5
:1001C0002DE9F05F0546002092469B46884606468C
:1001D000814640241BE0284641464746224600F01F
:1001E0002FF853465A46C01A914110D3114618466B
:1001F000224600F016F82D1A67EB01084F462246FA
:100200000120002100F00DF817EB00094E41201EDF
:10021000A4F10104DFDC484631462A464346BDE8E6
:10022000F09F202A04DB203A00FA02F100207047F8
:100230009140C2F1200320FA03F319439040704724
:10024000202A04DB203A21FA02F00021704721FA2B
:1002500002F3D040C2F12002914008431946704792
:10026000064C074D06E0E06840F0010394E8070003
:1002700098471034AC42F6D3FFF78AFF9017000876
:10028000B0170008FEE770472DE9F84FDFF87CB1A2
:1002900000224FF001084FF0030A4FF00F090BF155
:1002A000040E00BF0B6808FA02F42340A3426ED18B
:1002B0004D68022D01D0122D0ED1D50800EB850C12
:1002C000DCF820505607F70E09FA07F6B5430E6919
:1002D000BE402E43CCF82060066855000F790AFA1C
:1002E00005FC07F0030726EA0C06AF40374307601A
:1002F0004E68012E05D0022E03D0112E01D0122EF1
:100300000ED18668CF6826EA0C06AF403743876077
:100310004668A6430C79C4F3001494403443446007
:10032000C6688C6826EA0C06AC403443C4604C684E
:10033000E40065D5364C256845F480452560246881
:1003400022F0030504F480440094324C2E19D6F8B0
:10035000084895072F0F09FA07F5AC432E4DA84220
:1003600001D1002524E02D4DA84201D101251FE037
:100370002B4DA84201D102251AE02A4DA84201D1F5
:10038000032515E0284DA84202D1042510E037E0EE
:10039000264DA84201D105250AE0254DA84201D1EC
:1003A000062505E0234DA84201D1072500E00825D8
:1003B000BD402543C6F80858DBF800405D464E684E
:1003C0009C43F60300D51C432C60DEF800407546C4
:1003D0004E689C43B60300D51C432C600B4D08357A
:1003E0002C684E689C43F60200D51C432C60074DD8
:1003F0000C352C684E689C43B60200D51C432C601B
:10040000521C102AFFF44EAFBDE8F88F003C0140AB
:100410004438024000300140000002400004024025
:1004200000080240000C024000100240001402408C
:1004300000180240001C024001488068704700001C
:1004400008000020024881680278114481607047EA
:10045000080000200B4810B5016841F400710160EC
:10046000016841F480610160016841F480710160BC
:10047000032000F097F8002000F006F800F024F8C0
:10048000002010BD003C024070B50D4D04464FF4F5
:100490007A712878B1FBF0F00A490968B1FBF0F0F5
:1004A00000F0FBFA48B9102C07D200222146501E5A
:1004B00000F058F800206C6070BD012070BD000095
:1004C00008000020140000201F4808B5016841F40E
:1004D00080410160006800F4804000901A48001FCD
:1004E000016841F080510160006800F08050009088
:1004F000032000F057F8002211466FF00B0000F0C7
:1005000031F8002211466FF00A0000F02BF80022AB
:1005100011466FF0090000F025F800221146501F27
:1005200000F020F800221146101F00F01BF80022F6
:100530001146901E00F016F80022BDE80840114652
:10054000501E00F00FB800004438024000F01F02B7
:10055000012191404009800000F1E020C0F8001125
:1005600070470000F0B40E4B1B680C46C3F3022327
:10057000C3F10705042D00D90425191D072901D24F
:10058000002300E0DB1E012606FA05F1491E21408A
:1005900099409E40761E16403143F0BC00F05CBE90
:1005A0000CED00E0064900F0070208684FF6FF0373
:1005B000184040EA0220034A1043086070470000D8
:1005C0000CED00E00000FA052DE9F0470E460500AD
:1005D00065D0DFF81481D8F80000F7B200F00F0002
:1005E000B04207D288F80070D8F8000000F00F0081
:1005F000B04254D128683D4C810712D5400703D53D
:10060000206840F4E05020602878000703D5206877
:1006100040F4604020602068A96820F0F0000843A2
:1006200020602878C0072DD0304968680839012833
:1006300012D0022813D0032811D009688907002995
:100640002DDA216821F0030101432160FFF7F4FE58
:10065000814641F2883A0EE009688903EFE70968AC
:100660008901ECE7FFF7E8FEA0EB0901514502D94B
:100670000320BDE8F0872068696800F00C00B0EB4B
:10068000810FEFD1D8F80010404601F00F01B142C0
:1006900007D90770006800F00F00B04201D00120B8
:1006A000E7E72878400705D52068E96820F4E0509E
:1006B000084320602878000706D52068296920F4BF
:1006C000604040EAC100206000F01CF82168084A40
:1006D000C1F30311515CC840064908600020FFF7D0
:1006E000D3FE0020C5E70000003C0240083802406D
:1006F00080170008140000200148006870470000BF
:1007000014000020154810B5006810F00C021448C1
:1007100013D04110042A0FD0082A0ED10F4C241FE9
:100720002268236802F03F025B0207D52068C0F30D
:100730008810A0FB010106E0084610BD2168C1F346
:100740008811A1FB00010023FFF73AFD2168C1F3E6
:100750000141491C4900B0FBF1F010BD08380240CE
:100760000024F4002DE9F84F050076D02878DFF852
:10077000F8B2BE4CC00749D0DBF800105846C1F3B0
:100780008101012908D00068C0F3810002280AD144
:10079000201D0068400206D52068800336D56868B1
:1007A0000028E2D032E06868B0F5803F10D0B0F5A4
:1007B000A02F206810D020F480302060206820F422
:1007C000802020606868A0B1FFF736FE06460CE086
:1007D000206840F48030F4E740F480202060F7E7A0
:1007E000FFF72AFE801B642873D820688003F7D5A2
:1007F0000CE0FFF721FE064605E000BFFFF71CFEF8
:10080000801B6428F0D820688003F7D42878DFF8AC
:10081000608280074FF000093ED5DBF80010584693
:1008200011F00C0F09D00068C0F3810002280BD131
:100830008D48001F0068400206D42068800715D547
:10084000E868012809D111E0E868B8B10120C8F8CA
:100850000000FFF7F1FD064605E002E1FFF7ECFDC1
:10086000801B0228C0D820688007F7D52068296936
:1008700020F0F80040EAC10020600DE0C8F80090C8
:10088000FFF7DAFD064604E0FFF7D6FD801B0228DD
:100890001FD820688007F7D42878000722D5724E29
:1008A000744869696C3671B101210160FFF7C4FDBC
:1008B000074604E0FFF7C0FDC01B022809D83068D6
:1008C0008007F7D50EE0C0F80090FFF7B5FD0746AA
:1008D00005E083E0FFF7B0FDC01B02287ED830683A
:1008E0008007F7D42878400768D5DFF87CA1002777
:1008F0000AF1380ADAF80000C0000BD4DAF8001068
:1009000041F08051CAF80010DAF80000012700F029
:1009100080500090584E3068C00510D4306840F4C4
:1009200080703060FFF788FD009005E0FFF784FDE0
:100930000099401A022851D83068C005F6D54A4EB1
:10094000A868683601280FD00528306810D020F03C
:1009500001003060306820F004003060A868B8B151
:10096000FFF76AFD00900FE0306840F00100F4E707
:1009700040F004003060F7E7FFF75EFD0099411A90
:1009800041F28830814264D830688007F4D50EE0A7
:10099000FFF752FD009007E0FFF74EFD0099411A66
:1009A00041F28830814254D830688007F4D42FB1A6
:1009B000DAF8001021F08051CAF80010A869C0B31D
:1009C000DBF80010C1F3810102294AD00228484611
:1009D00007D0C8F86000FFF72FFD00E039E00546BA
:1009E0003AE04746C8F86000FFF726FD064604E0F7
:1009F000FFF722FD801B02282BD820688001F7D446
:100A0000D5E907010843A96A1C4A490802EB0141DC
:100A10006A6A41EA8211084395F82C1040EA0161A4
:100A20001148001F016001203866FFF705FD0546EB
:100A300005E014E0FFF700FD401B022809D82068FC
:100A40008001F7D50BE000BFFFF7F6FC401B022842
:100A500002D90320BDE8F88F20688001F4D400207B
:100A6000F8E70120F6E700000838024000380240AD
:100A700000004742800E4742007000400000FFFF28
:100A80004FF0E0210428086903D020F00400086139
:100A9000704740F00400FAE7704710B5401EB0F10F
:100AA000807F01D3012010BD4FF0E02460610F2151
:100AB000601700F0D1FB0020A0610720206100201A
:100AC00010BD10B5FFF7E8FF10BD7047704730B597
:100AD00090F83820012A20D0012280F83820022303
:100AE00080F8393003685C6824F070045C60036847
:100AF0005C680D682C435C6003689C6824F080048B
:100B00009C6003689C6849680C439C6080F83920AD
:100B1000002180F83810084630BD022030BD10B5E5
:100B2000040003D094F8390010B107E0012010BD93
:100B3000002084F83800204600F00CF8022084F8E9
:100B40003900211D206800F025FC012084F83900BF
:100B5000002010BD00B50068114987B088421DD142
:100B600010480021026842F008020260006800F0AC
:100B700008000590012000900220CDE90101032129
:100B8000CDE9031069460848FFF77EFB00221146B5
:100B90003220FFF7E7FC3220FFF7D8FC07B000BD9A
:100BA000000C0040403802400000024070B504468E
:100BB00090F83800012817D0012584F83850022019
:100BC00084F839002068826822F0770222F47F429C
:100BD00082600868502837D00DDC202859D005DC09
:100BE00088B3102841D151E0022070BD302853D085
:100BF00040283AD13FE060282ED070280BD0B0F5C5
:100C0000805F03D0B0F5005F2FD110E020688168CD
:100C100021F0070115E0CB68D1E90121206800F03F
:100C200024FC2168886840F0770088601DE0CB686C
:100C3000D1E90121206800F018FC2068816841F4A6
:100C40008041816011E01EE0CA684968206800F0B8
:100C5000D5FC5021206806E0CA684968206800F089
:100C600021FD6021206800F00AFC84F83950002042
:100C700084F8380070BDCA684968206800F0BEFC7E
:100C800040212068EFE700212068ECE71021206870
:100C9000E9E720212068E6E730212068E3E700004B
:100CA00000680549884206D104480068416B044A3F
:100CB0005160002141627047000C00405400002048
:100CC000000000202DE9F041044690F838000D4660
:100CD00001283DD0012684F83860022084F83900CC
:100CE000AAB3042A46D02068082A55D0D5E900279F
:100CF000E968036A23F480530362D0F81CC0036AD6
:100D00002CF4407C4CEA07274FF6FF7C27F4704711
:100D10000CEA013139434FF4204723F4204307EA1A
:100D200002321A43C16102622068C16921F4406144
:100D3000C1612068C169AA6841EA0221C0F81C109B
:100D400084F83960002084F83800BDE8F08101E0C3
:100D50000220FAE7D5E90012EB68206800F060FC99
:100D60002068816921F00C01816120688169AA688D
:100D700011430FE0D5E90012EB68206800F0A4FCF5
:100D80002068816921F44061816120688169AA68D5
:100D900041EA02218161D3E7D5E9002C2F7B016A6A
:100DA00021F480710162C169036A21F0030141EA03
:100DB0000C0121F0F00C39074FF420674CEA116167
:100DC00023F4206307EA02221A43C1610262206809
:100DD000C16921F00C01C1612068C169AA68114391
:100DE000ACE710B5040003D094F8390010B107E067
:100DF000012010BD002084F83800204600F00CF8D7
:100E0000022084F83900211D206800F0C3FA012077
:100E100084F83900002010BD704710B50268044600
:100E200031B1042908D0082915D00C2908D116E0C1
:100E3000D06840F0020002E0D06840F00400D060CA
:100E40000122206800F006FB2068016841F00101E2
:100E50000160002010BDD06840F00800EFE7D068C6
:100E600040F01000EBE770B50446006801694FF0F0
:100E70000005C943890715D4C168C943890711D43E
:100E8000E91E0161012020762068806980072046E4
:100E900002D0FFF705FF04E000F0B0F8204600F0B4
:100EA0004DF9257620680169C943490717D4C168FF
:100EB000C943490713D46FF0040101610220207671
:100EC0002068806910F4407F204602D0FFF7E8FEDA
:100ED00004E000F093F8204600F030F92576206811
:100EE0000169C943090716D4C168C943090712D467
:100EF0006FF008010161042020762068C069800736
:100F0000204602D0FFF7CCFE04E000F077F8204640
:100F100000F014F9257620680169C943C90617D481
:100F2000C168C943C90613D46FF0100101610820DC
:100F300020762068C06910F4407F204602D0FFF779
:100F4000AFFE04E000F05AF8204600F0F7F82576EE
:100F500020680169C943C90708D1C168C943C907E5
:100F600004D1891E0161204600F006F9206801695C
:100F7000C943090609D4C168C943090605D46FF0FD
:100F8000800101612046FFF7A0FD20680169C94387
:100F9000490609D4C168C943490605D46FF0400128
:100FA0000161204600F0E9F820680169C94389061B
:100FB0000BD4C168C943890607D46FF020010161D1
:100FC0002046BDE87040FFF781BD70BD00B50068E8
:100FD00085B0B0F1804F0DD120200090022001900B
:100FE00000200290032003900120049069460248EB
:100FF000FFF74AF905B000BD00000240704770B528
:10100000044690F838000D4601280DD0012684F8DA
:101010003860022084F8390042B1042A18D0082A26
:101020002AD00C2A4DD139E0022070BD206800F092
:101030002FFA2068816941F0080181612068816987
:1010400021F004018161206881692A69114311E05E
:10105000206800F049FA2068816941F400618161EB
:101060002068816921F480618161206881692A6931
:1010700041EA0221816124E0206800F067FA2068DB
:10108000C16941F00801C1612068C16921F0040112
:10109000C1612068C1692A69114311E0206800F02C
:1010A00085FA2068C16941F40061C1612068C169A5
:1010B00021F48061C1612068C1692A6941EA022185
:1010C000C16184F83960002084F8380070BD10B523
:1010D000040003D094F8390010B107E0012010BDDE
:1010E000002084F83800204600F00CF8022084F834
:1010F0003900211D206800F04DF9012084F83900E5
:10110000002010BD08B50068B0F1804F12D10A4828
:10111000016841F0010101600068002200F0010057
:10112000009011461C20FFF71DFABDE808401C2066
:10113000FFF70CBA08BD00004038024070470000BD
:1011400010B504460068012200F084F908492068BF
:10115000884202D00749884203D1416C41F40041E2
:1011600041642068016841F001010160002010BD68
:10117000000001400004014070477047FEE7000096
:1011800010B515488AB04FF0804101602721002436
:10119000C0E901146821C0E90314FFF798FF00B10A
:1011A000FEE7079407A90C480894FFF790FC00B1EC
:1011B000FEE7602000903420CDE90104002269465A
:1011C00005480494FFF71BFF00B1FEE70248FFF754
:1011D000FDFE0AB010BD00001800002010B51C482C
:1011E0008AB01A49016053210024C0E901144CF26D
:1011F0005031C0E90314FFF792FC00B1FEE74FF451
:101200008050049004A91248FFF7D0FC00B1FEE71B
:101210000F48FFF7E6FD00B1FEE7089408A90C4867
:101220000994FFF754FC00B1FEE70120CDE900402E
:101230000F20CDE90240002269460548FFF742FD34
:10124000002800D0FEE70AB010BD0000000C0040EE
:1012500054000020FEE770470907090E002806DA4F
:1012600000F00F0000F1E02080F8141D704700F13D
:10127000E02080F8001470477047704710B5FFF702
:10128000E1F8BDE81040FFF71CBC000030B5244871
:1012900093B00025016841F080510160006800F0C2
:1012A000805011901F48016841F48041016000683E
:1012B000022400F48040119001200090000401906D
:1012C0008001CDE90640082008904FF4A870CDE9D0
:1012D000090404200B906846FFF744FA00B1FEE7CA
:1012E0000CA90F2081E831004FF4A0500F9010900E
:1012F00005210CA8FFF768F900B1FEE7FFF7FCF93C
:101300004FF47A71B0FBF1F0FFF7C7FB0420FFF751
:10131000B7FB00221146501EFFF724F913B030BD71
:1013200040380240007000401048016841F47001EC
:1013300001600F48016841F0010101600C4A002181
:101340000832116002680B4B1A400260031D0A4A02
:101350001A60026822F48022026005480C300160A5
:1013600002495806803908607047000088ED00E0A7
:1013700000380240FFFFF6FE103000240148FFF75E
:1013800072BD0000180000200148FFF76CBD00008E
:1013900054000020F0B50268234B244D244E254F05
:1013A000254C4FF0804C984209D0604507D0A842A8
:1013B00005D0B04203D0B84201D0A04204D122F0FF
:1013C000700E4A6842EA0E0298421BD0604519D05E
:1013D000A84217D0B04215D0B84213D0A04211D0C5
:1013E000164DA8420ED0164DA8420BD0154DA8425E
:1013F00008D0154DA84205D0144DA84202D0144D76
:10140000A84203D122F44075CA682A4302608A6860
:10141000C2620A688262984201D0A04201D1096981
:10142000016301214161F0BD000001400004004062
:1014300000080040000C0040000401400040014052
:10144000004401400048014000180040001C0040DA
:101450000020004010B50123046A8B409C430462C5
:10146000036A8A401343036210BD10B5846842EAE0
:10147000032224F47F440A432243826010BD826821
:1014800022F070020A4342F00701816070470000B9
:1014900030B5026A22F001020262026A436884697E
:1014A0000D6824F07304254322F002048A68224365
:1014B0000B4CA04202D00B4CA0420BD122F00804EE
:1014C000CA6823F4407322434C6922F004021C438F
:1014D0008B6923434360856149684163026230BD83
:1014E000000001400004014030B5026A22F0100201
:1014F0000262026A436884690D6824F4E64444EA9F
:1015000005248D6822F0200242EA05120D4DA84202
:1015100002D00D4DA8420ED1CD6822F0800242EAE1
:1015200005124D6923F4406343EA85038D6922F077
:10153000400243EA85034360846149688163026233
:1015400030BD0000000001400004014030B5026AD7
:1015500022F480720262036A4268C46923F4007351
:1015600024F073050C682C438D6843EA05230D4D68
:10157000A84202D00C4DA8420ED1CD6823F40063DE
:1015800043EA05234D6922F4405242EA05128D696F
:1015900023F4806342EA05124260C4614968C16372
:1015A000036230BD000001400004014030B5026A12
:1015B00022F480520262046A4268C3690D6823F40F
:1015C000E64343EA05238D6824F4005444EA0534D5
:1015D000084DA84202D0084DA84204D14D6922F41A
:1015E000804242EA85124260C36149680164046234
:1015F00030BD0000000001400004014010B5036A46
:10160000046A24F001040462846924F0F00444EACA
:10161000021423F00A020A438461026210BD000032
:1016200070B5046A24F0010404628469056A164EE8
:10163000B04214D0B0F1804F11D0144EB0420ED051
:10164000134EB0420BD0134EB04208D0124EB042EF
:1016500005D0124EB04202D0114EB04203D124F058
:101660000304144303E024F0030242F001041A07C8
:1016700024F0F00444EA126225F00A0301F00A01A2
:1016800019438261016270BD000001400004004006
:1016900000080040000C00400004014000400140F0
:1016A0000018004010B5036A23F010030362836939
:1016B000046A23F4704343EA023224F0A00343EAAD
:1016C00001118261016210BD30B5046A24F010047A
:1016D00004628469056A24F4407444EA022222F414
:1016E00070444FF6FF7202EA03322243A02425F031
:1016F000A00304EA011119438261016230BDFEE7D3
:1017000002E008C8121F08C1002AFAD170477047CA
:10171000002001E001C1121F002AFBD17047000028
:1017200008B5FEF797FEFFF7B1FD1248016841F0DA
:1017300080010160016801F080010091016841F0C1
:1017400001010160006800F001000090FFF718FD42
:10175000FFF744FD00210848FFF7F2FC064800218E
:101760003C30FFF75AFB044804493C300068426AA9
:101770000A60FCE73038024018000020000000201A
:101780000000000000000000010203040607080931
:10179000B017000800000020180000000017000823
:1017A000C81700081800002078040000101700086F
:1017B0000000000000000000010000001000000018
:0817C000000000000024F40009
:040000050800018965
:00000001FF
