:020000040800F2
:10000000000600209D010008D71000086B100008B2
:10001000D5100008A9020008F9150008000000002A
:10002000000000000000000000000000FB100008BD
:100030001904000800000000F9100008FD10000875
:10004000B7010008B7010008B7010008B7010008B0
:10005000B7010008B7010008B7010008B7010008A0
:10006000B7010008B7010008B7010008B701000890
:10007000B7010008B7010008B7010008B701000880
:10008000AD020008B7010008B7010008B701000879
:10009000B7010008B7010008B7010008B701000860
:1000A000B7010008B7010008B7010008B701000850
:1000B000B7010008B7010008B7010008B701000840
:1000C000B7010008B7010008B7010008B701000830
:1000D000B7010008B7010008CD150008B7010008F6
:1000E000B7010008B7010008B7010008B701000810
:1000F000B7010008B7010008B7010008B701000800
:10010000B7010008B7010008B7010008B7010008EF
:10011000B7010008B7010008B7010008B7010008DF
:10012000B7010008B7010008B7010008B7010008CF
:10013000B7010008B7010008B7010008B7010008BF
:10014000B7010008B7010008B7010008B7010008AF
:10015000B7010008B7010008B7010008B70100089F
:10016000B7010008B7010008B7010008B70100088F
:10017000B7010008B7010008B7010008000000003F
:10018000B7010008B7010008DFF80CD000F07AF8DA
:10019000004800471D16000800060020064880475A
:1001A00006480047FEE7FEE7FEE7FEE7FEE7FEE75C
:1001B000FEE7FEE7FEE7FEE7A91100088901000857
:1001C0002DE9F05F0546002092469B46884606468C
:1001D000814640241BE0284641464746224600F01F
:1001E00041F853465A46C01A914110D31146184659
:1001F000224600F028F82D1A67EB01084F462246E8
:100200000120002100F01FF817EB00094E41201ECD
:10021000A4F10104DFDC484631462A464346BDE8E6
:10022000F09F40EA01039B0703D009E008C9121FB1
:1002300008C0042AFAD203E011F8013B00F8013BA0
:10024000521EF9D27047202A04DB203A00FA02F14C
:10025000002070479140C2F1200320FA03F31943B4
:1002600090407047202A04DB203A21FA02F0002156
:10027000704721FA02F3D040C2F1200291400843B6
:1002800019467047064C074D06E0E06840F0010350
:1002900094E8070098471034AC42F6D3FFF778FF94
:1002A000D0160008F0160008FEE7000001490248D9
:1002B00000F042B8200000206000002001681823F0
:1002C000CAB2103AB2FBF3F2054B6FF30901032AED
:1002D0009B5CC36500D9091D816508467047000015
:1002E000B016000810B5014600208B698A6A4FF0ED
:1002F000C07453B1B3F5005F15D072B1012A0CD0B0
:10030000022A0AD0032A09D104E01AB1012A06D030
:10031000022A03D1C96AC90100D5012010BDC96AEA
:10032000A142FAD010BD002AF7D0012AF2D0022A49
:10033000F3D0032AF3D010BD2DE9F0470546876DB1
:10034000006889460068C00649D595F85C102020F1
:100350008840B86028684068224CC0F14000606066
:100360002268C2F58071A160814200D9A0601E4E52
:10037000DFF87880E66008EB02003146A268FFF7FC
:1003800050FF2168A0680A23014421606268091AAD
:10039000121A6260E26841440244E26082B2484656
:1003A00000F006FE62685AB14046E168FFF739FF87
:1003B0006068206082B20A234146484600F0F8FD9A
:1003C00095F85C103F208840B8602868C6602968AE
:1003D000402048602868016841F001010160BDE8E3
:1003E000F087000000000020C00000200001002075
:1003F00030B50468256825F48025256004686360AD
:100400008368402B036803D099600068C26030BDE8
:100410009A600068C16030BD704700002DE9F0416E
:10042000044600F07FF906465CB1002584F834509C
:10043000022084F835002068016821F00101016084
:100440000DE00120BDE8F08100F06CF9801B05286B
:1004500005D920206065032084F83500F2E7206884
:100460000068C007F0D12268116820480140D4E933
:1004700001031843D4E9033633431843636918432F
:10048000A3691843E3691843236A18430843616A60
:10049000042903D1D4E90B131943084310602068E1
:1004A0004069666A20F0070130460E4301270428A0
:1004B0000CD1A06A0643E06A40B12046FFF712FF64
:1004C00020B14020606584F83570BAE72068466145
:1004D0002046FFF7F3FE94F85C203F2191408160B5
:1004E000656584F835700020ACE700003F8010F0AF
:1004F0002DE9F0410446866D90F83400002501286E
:100500000DD0012084F8340094F835700020012FBC
:1005100007D084F8340002252846BDE8F081022087
:10052000FBE7022784F8357060652046FFF760FF1F
:1005300094F85C103F208840B0602068016841F06A
:10054000160101602068416941F080014161206C21
:1005500020B12068016841F008010160206801684D
:1005600041F001010160D7E72DE9F84FDFF87CB1D8
:1005700000224FF001084FF0030A4FF00F090BF172
:10058000040E00BF0B6808FA02F42340A3426ED1A8
:100590004D68022D01D0122D0ED1D50800EB850C2F
:1005A000DCF820505607F70E09FA07F6B5430E6936
:1005B000BE402E43CCF82060066855000F790AFA39
:1005C00005FC07F0030726EA0C06AF403743076037
:1005D0004E68012E05D0022E03D0112E01D0122E0E
:1005E0000ED18668CF6826EA0C06AF403743876095
:1005F0004668A6430C79C4F3001494403443446025
:10060000C6688C6826EA0C06AC403443C4604C686B
:10061000E40065D5364C256845F48045256024689E
:1006200022F0030504F480440094324C2E19D6F8CD
:10063000084895072F0F09FA07F5AC432E4DA8423D
:1006400001D1002524E02D4DA84201D101251FE054
:100650002B4DA84201D102251AE02A4DA84201D112
:10066000032515E0284DA84202D1042510E037E00B
:10067000264DA84201D105250AE0254DA84201D109
:10068000062505E0234DA84201D1072500E00825F5
:10069000BD402543C6F80858DBF800405D464E686B
:1006A0009C43F60300D51C432C60DEF800407546E1
:1006B0004E689C43B60300D51C432C600B4D083597
:1006C0002C684E689C43F60200D51C432C60074DF5
:1006D0000C352C684E689C43B60200D51C432C6038
:1006E000521C102AFFF44EAFBDE8F88F003C0140C9
:1006F0004438024000300140000002400004024043
:1007000000080240000C02400010024000140240A9
:1007100000180240001C02400AB1816170470904C0
:10072000FBE70000014880687047000010000020CF
:1007300002488168027811448160704710000020EF
:100740000B4810B5016841F400710160016841F483
:1007500080610160016841F480710160032000F054
:1007600097F8002000F006F800F024F8002010BDF3
:10077000003C024070B50D4D04464FF47A71287864
:10078000B1FBF0F00A490968B1FBF0F000F01BFB87
:1007900048B9102C07D200222146501E00F058F80C
:1007A00000206C6070BD012070BD000010000020B2
:1007B0001C0000201F4808B5016841F48041016019
:1007C000006800F4804000901A48001F016841F062
:1007D00080510160006800F080500090032000F01C
:1007E00057F8002211466FF00B0000F031F800229C
:1007F00011466FF00A0000F02BF8002211466FF04E
:10080000090000F025F800221146501F00F020F8E2
:1008100000221146101F00F01BF800221146901E06
:1008200000F016F80022BDE808401146501E00F006
:100830000FB800004438024000F01F02012191402F
:100840004009800000F1E020C0F80011704700006E
:10085000F0B40E4B1B680C46C3F30223C3F107052B
:10086000042D00D90425191D072901D2002300E019
:10087000DB1E012606FA05F1491E214099409E40E3
:10088000761E16403143F0BC00F026BC0CED00E0B3
:10089000064900F0070208684FF6FF03184040EAD7
:1008A0000220034A10430860704700000CED00E08E
:1008B0000000FA052DE9F0470E46050065D0DFF887
:1008C0001481D8F80000F7B200F00F00B04207D250
:1008D00088F80070D8F8000000F00F00B04254D142
:1008E00028683D4C810712D5400703D5206840F4A5
:1008F000E05020602878000703D5206840F460406D
:1009000020602068A96820F0F00008432060287863
:10091000C0072DD0304968680839012812D0022854
:1009200013D0032811D00968890700292DDA21681E
:1009300021F0030101432160FFF7F4FE814641F2FB
:10094000883A0EE009688903EFE709688901ECE756
:10095000FFF7E8FEA0EB0901514502D90320BDE8ED
:10096000F0872068696800F00C00B0EB810FEFD1D0
:10097000D8F80010404601F00F01B14207D90770C6
:10098000006800F00F00B04201D00120E7E72878AE
:10099000400705D52068E96820F4E050084320604E
:1009A0002878000706D52068296920F4604040EACD
:1009B000C100206000F03CF82168084AC1F303112F
:1009C000515CC840064908600020FFF7D3FE0020B4
:1009D000C5E70000003C024008380240B816000895
:1009E0001C00002001480068704700001C00002027
:1009F0000448054900680968044AC1F38221515C32
:100A0000C84070471C00002008380240C816000883
:100A10000448054900680968044AC1F34231515C41
:100A2000C84070471C00002008380240C816000863
:100A3000154810B5006810F00C02144813D041108E
:100A4000042A0FD0082A0ED10F4C241F22682368D5
:100A500002F03F025B0207D52068C0F38810A0FBBC
:100A6000010106E0084610BD2168C1F38811A1FB11
:100A700000010023FFF7A4FB2168C1F30141491CD9
:100A80004900B0FBF1F010BD083802400024F4002A
:100A90002DE9F84F050076D02878DFF8F8B2BE4C83
:100AA000C00749D0DBF800105846C1F38101012985
:100AB00008D00068C0F3810002280AD1201D006818
:100AC000400206D52068800336D568680028E2D049
:100AD00032E06868B0F5803F10D0B0F5A02F2068F4
:100AE00010D020F480302060206820F48020206026
:100AF0006868A0B1FFF716FE06460CE0206840F4D7
:100B00008030F4E740F480202060F7E7FFF70AFE2A
:100B1000801B642873D820688003F7D50CE0FFF7AA
:100B200001FE064605E000BFFFF7FCFD801B6428C0
:100B3000F0D820688003F7D42878DFF86082800737
:100B40004FF000093ED5DBF80010584611F00C0FAD
:100B500009D00068C0F3810002280BD18D48001F26
:100B60000068400206D42068800715D5E86801288F
:100B700009D111E0E868B8B10120C8F80000FFF71A
:100B8000D1FD064605E002E1FFF7CCFD801B0228FF
:100B9000C0D820688007F7D52068296920F0F800C0
:100BA00040EAC10020600DE0C8F80090FFF7BAFDF0
:100BB000064604E0FFF7B6FD801B02281FD8206818
:100BC0008007F7D42878000722D5724E74486969E7
:100BD0006C3671B101210160FFF7A4FD074604E006
:100BE000FFF7A0FDC01B022809D830688007F7D5A1
:100BF0000EE0C0F80090FFF795FD074605E083E0A2
:100C0000FFF790FDC01B02287ED830688007F7D41C
:100C10002878400768D5DFF87CA100270AF1380A58
:100C2000DAF80000C0000BD4DAF8001041F080516F
:100C3000CAF80010DAF80000012700F08050009098
:100C4000584E3068C00510D4306840F48070306071
:100C5000FFF768FD009005E0FFF764FD0099401A7A
:100C6000022851D83068C005F6D54A4EA8686836C3
:100C700001280FD00528306810D020F00100306026
:100C8000306820F004003060A868B8B1FFF74AFD72
:100C900000900FE0306840F00100F4E740F00400FD
:100CA0003060F7E7FFF73EFD0099411A41F28830C6
:100CB000814264D830688007F4D50EE0FFF732FD3A
:100CC000009007E0FFF72EFD0099411A41F28830AD
:100CD000814254D830688007F4D42FB1DAF800107C
:100CE00021F08051CAF80010A869C0B3DBF80010E9
:100CF000C1F3810102294AD00228484607D0C8F82A
:100D00006000FFF70FFD00E039E005463AE0474696
:100D1000C8F86000FFF706FD064604E0FFF702FD95
:100D2000801B02282BD820688001F7D4D5E9070161
:100D30000843A96A1C4A490802EB01416A6A41EA70
:100D40008211084395F82C1040EA01611148001FF8
:100D5000016001203866FFF7E5FC054605E014E078
:100D6000FFF7E0FC401B022809D820688001F7D576
:100D70000BE000BFFFF7D6FC401B022802D903207E
:100D8000BDE8F88F20688001F4D40020F8E7012046
:100D9000F6E70000083802400038024000004742F1
:100DA000800E4742007000400000FFFF4FF0E0213E
:100DB0000428086903D020F004000861704740F05F
:100DC0000400FAE7704710B5401EB0F1807F01D3F0
:100DD000012010BD4FF0E02460610F21601700F08A
:100DE0007BF90020A06107202061002010BD10B514
:100DF000FFF7E8FF10BD704770B5040004D094F809
:100E00003900002510B106E0012070BD84F838508B
:100E1000204600F023F8242084F839002068C168B7
:100E200021F40051C160204600F048FA20680169B1
:100E300021F4904101612068416921F02A0141615A
:100E40002068C16841F40051C160E563202084F846
:100E5000390084F83A00002070BD000070B50646E5
:100E60000068204986B0884239D11F4800250168B2
:100E700041F4003101600068694600F400300590DB
:100E80000C2000900220019001200290032003908A
:100E9000072004901548FFF767FB164C14482060A4
:100EA0004FF00060C4E901054014C4E903506561D6
:100EB000C001A561C4E9075020466562FFF7AEFA9C
:100EC00018B178210CA000F098FB74630022114641
:100ED0002620A663FFF7BCFC2620FFF7ADFC06B07A
:100EE00070BD000000440040403802400000024055
:100EF00088600240600000202E2E2F5372632F73F3
:100F0000746D3332663478785F68616C5F6D7370CE
:100F10002E630000F8B5044690F83A0020283CD132
:100F2000C1B3BAB394F83800012836D0012084F850
:100F30003800A162A2850025E563222084F83A00EA
:100F4000636B1748D863636B16481864636B164865
:100F5000D864606B134605650846666B21680246D7
:100F60003046091DFFF7C4FA206801684168009106
:100F700084F83850C16841F48071C16020684169CB
:100F800041F0010141612068416941F04001416146
:100F90000020F8BDFFE70120FBE70220F9E7000091
:100FA0004712000883120008FD11000870477047BF
:100FB0002DE9F843044690F839001F4616460D46C1
:100FC000202850D1A5B19EB194F8380001284AD00C
:100FD000012084F838004FF00008C4F83C8021203C
:100FE00084F83900FFF79EFBA6848146E68426E05C
:100FF0000120BDE8F883E08C401EE084A0684B46E9
:10100000B0F5805F4FF000024FF08001204600975E
:1010100003D000F0A9FAE8B90DE000F0A5FAC8B9CC
:1010200028882168C0F308004860206908B16D1C59
:1010300005E0AD1C03E0216815F8010B4860E08C69
:101040000028D8D14B46002240212046009700F0CE
:101050008BFA08B10320CCE7202084F8390084F80B
:1010600038800020C5E70220C3E7FEE770B51748C7
:1010700086B00024016841F080010160016801F040
:1010800080010591016841F001010160016801F0F2
:1010900001010591016841F00801016000680C4EF2
:1010A00000F008004FF40045059000222946304624
:1010B000FFF732FB01200095CDE901046946304677
:1010C0000394FFF751FA06B070BD000030380240BB
:1010D000000C0240FEE770470907090E002806DAF7
:1010E00000F00F0000F1E02080F8141D704700F1BF
:1010F000E02080F8001470477047704710B5FFF784
:1011000017FBBDE81040FFF772BE000030B5244861
:1011100093B00025016841F080510160006800F043
:10112000805011901F48016841F4804101600068BF
:10113000022400F4804011900120009000040190EE
:101140008001CDE90640082008904FF4A870CDE951
:10115000090404200B906846FFF79AFC00B1FEE7F3
:101160000CA90F2081E831004FF4A0500F9010908F
:1011700005210CA8FFF79EFB00B1FEE7FFF732FC4C
:101180004FF47A71B0FBF1F0FFF71DFE0420FFF77A
:101190000DFE00221146501EFFF75AFB13B030BD62
:1011A00040380240007000401048016841F470016E
:1011B00001600F48016841F0010101600C4A002103
:1011C0000832116002680B4B1A400260031D0A4A84
:1011D0001A60026822F48022026005480C30016027
:1011E00002495806803908607047000088ED00E029
:1011F00000380240FFFFF6FE1030002470B5846B0B
:101200002068406994F83910C0F3C01000252129E6
:1012100004D118B1E584204600F046F82068406902
:1012200094F83A10C0F38010222904D118B1E58552
:10123000204600F02BF8E06B40F01000E063204601
:10124000FFF7D9FD70BD10B50146806B09680968CC
:10125000C90513D40021C1850168CA6822F48072CF
:10126000CA6001684A6922F001024A6101684A695C
:1012700022F040024A61202180F83A10FFF796FEE2
:1012800010BD10B5806BFFF792FE10BD0168CA68F3
:1012900022F49072CA6001684A6922F001024A6130
:1012A000202180F83A1070470168CA6822F0C00215
:1012B000CA60202180F83910704700002DE9F04104
:1012C00004460068016921F44052E168114301615C
:1012D0002168C86849F20C6290432369A268E569F5
:1012E0001A4363692B431A430243CA602168486961
:1012F00020F44072A06910434861E1696425B1F5AA
:10130000004F9748974A21684FF032083FD09142EA
:1013100001D081427CD1FFF77BFB00EBC00101EBE8
:10132000001061688900B0FBF1F6FFF771FB00EB7C
:10133000C00101EB001061688900B0FBF1F0B0FB67
:10134000F5F06FF01801484306EB800108EB01103F
:10135000B0FBF5F000F0F006FFF75AFB00EBC00120
:1013600001EB001061688900B0FBF1F0B0FBF5F013
:1013700006EB0016FFF74CFB00EBC00101EB001081
:1013800061688900B0FBF1F7FFF742FBD2E09142C0
:1013900001D081423DD1FFF73BFB00EBC00101EBE7
:1013A000001061684900B0FBF1F0B0FBF5F00601F8
:1013B000FFF72EFB00EBC00101EB00106168490054
:1013C000B0FBF1F7FFF724FB00EBC00101EB0010CD
:1013D00061684900B0FBF1F0B0FBF5F06FF0180167
:1013E000484307EB800108EBC100B0FBF5F000F0CB
:1013F000F80006EB4006FFF70BFB00EBC00101EB2A
:10140000001061684900B0FBF1F7FFF701FB3CE019
:1014100055E0FFF7EDFA00EBC00101EB0010616849
:101420004900B0FBF1F0B0FBF5F00601FFF7E0FA80
:1014300000EBC00101EB001061684900B0FBF1F75F
:10144000FFF7D6FA00EBC00101EB0010616849001C
:10145000B0FBF1F0B0FBF5F06FF01801484307EB7B
:10146000800108EBC100B0FBF5F000F0F80006EBDE
:101470004006FFF7BDFA00EBC00101EB0010616808
:101480004900B0FBF1F7FFF7B3FA00EBC00101EB45
:10149000001061684900B0FBF1F0B0FBF5F06FF0AF
:1014A0001801484307EB800108EBC100B0FBF5F0E1
:1014B00000F00700216830448860BDE8F081FFF744
:1014C00097FA00EBC00101EB001061688900B0FBE6
:1014D000F1F6FFF78DFA00EBC00101EB0010616837
:1014E0008900B0FBF1F0B0FBF5F06FF01801484354
:1014F00006EB800108EB0110B0FBF5F000F0F00600
:10150000FFF776FA00EBC00101EB0010616889007B
:10151000B0FBF1F0B0FBF5F006EB0016FFF768FA50
:1015200000EBC00101EB001061688900B0FBF1F72E
:10153000FFF75EFA00EBC00101EB00106168890063
:10154000B0FBF1F0B0FBF5F06FF01801484307EB8A
:10155000800108EB0110B0FBF5F000F00F00A9E7E7
:1015600000140140001001402DE9F0419846174653
:101570000E460446069D1DE0681C1BD02DB1FFF7EA
:10158000D1F8A0EB0800A84214D92068C16821F462
:10159000D071C1602068416921F0010141612020C2
:1015A00084F8390084F83A00002084F838000320D9
:1015B000BDE8F0812068006836EA000004D0002011
:1015C000B842D9D00020F3E70120F9E701490248E9
:1015D00000F004B8600000202000002008B500687A
:1015E0000268D20607D50268406800900868016862
:1015F00021F00101016008BDFEE7FEE702E008C836
:10160000121F08C1002AFAD170477047002001E07C
:1016100001C1121F002AFBD17047000008B5FFF777
:101620008FF8FFF773FDFFF721FD1E4800250168C5
:1016300041F40011016000682A4600F40010009097
:1016400029461020FFF704F91020FFF7F5F8174C92
:10165000154820604FF4E130C4E901050C20E56035
:10166000C4E90450A5612046E561FFF7C5FB00B160
:10167000FEE72068C16841F01001C1600B484030AE
:1016800001680A6842F010020A600068016821F0EF
:101690000801016005494022A0310448FFF73AFCE7
:1016A000FEE70000303802400044004020000020E7
:1016B00000061016000610160000000000000000D2
:1016C00001020304060708090000000001020304E8
:1016D000F01600080000002020000000FC150008A3
:1016E0001017000820000020E00500000C1600087C
:1016F00000000000000000000000000000000000EA
:101700000100000010000000000000000024F400B0
:040000050800018965
:00000001FF
