:020000040800F2
:1000000060040020C1110008491100084B110008CC
:100010004D1100084F1100085111000800000000A8
:100020000000000000000000000000005311000864
:100030005511000800000000571100085911000870
:10004000ED110008F1110008F5110008F911000880
:10005000FD1100080112000805120008091200082D
:100060000D120008111200081512000819120008DC
:100070001D1200082112000825120008291200088C
:100080002D1200083112000835120008391200083C
:100090003D120008411200084512000849120008EC
:1000A0004D1200085112000855120008591200089C
:1000B0005D1200086112000865120008691200084C
:1000C0006D120008711200087512000879120008FC
:1000D0007D120008811200088512000889120008AC
:1000E0008D1200089112000895120008991200085C
:1000F0009D120008A1120008A5120008A91200080C
:10010000AD120008B1120008B5120008B9120008BB
:10011000BD120008C1120008C5120008C91200086B
:10012000CD120008D1120008D5120008D91200081B
:10013000DD120008E1120008E5120008E9120008CB
:10014000ED120008F1120008F5120008F91200087B
:10015000FD12000801130008051300080913000828
:100160000D130008111300081513000819130008D7
:100170001D130008211300082513000800000000CB
:10018000291300082D1300082DE9F843040017D0A7
:100190002078B74EC10745D5B06800F00C000428A0
:1001A00007D0B06800F00C0008280BD1706841023D
:1001B00008D53068810335D56068002840F0BA80E2
:1001C000012053E16068B0F5803F04D1306840F40D
:1001D0008030306011E0B0F5A02F306806D140F4D7
:1001E00080203060316841F4803105E020F48030B7
:1001F0003060316821F480213160606868B100F0BE
:100200003FF905463068810300F1948000F038F929
:10021000401B6528F6D3032028E100F031F905469C
:100220003068810340F1868000F02AF9401B652880
:10023000F6D3F0E700F024F9401B022840F2A78033
:10024000E9E7E06870B10121396000F019F905466D
:100250003068810700F1CB8000F012F9401B0228C2
:10026000F6D9D8E7386000F00BF905463168880701
:1002700063D500F005F9401B0228F7D9CBE70860E9
:1002800000F0FEF80546706F810775D500F0F8F8AC
:10029000401B0228F7D9BEE70528306F06D140F091
:1002A00004003067306F40F0010005E04008400076
:1002B0003067306F20F00400306741F28938A06861
:1002C00068B100F0DDF88146306F810700F19C8055
:1002D00000F0D6F8A0EB09004045F5D39BE700F00D
:1002E000CFF88146306F810740F18E8000F0C8F86A
:1002F000A0EB09004045F5D38DE700F0C1F8401BA5
:10030000022840F2968086E700F0BAF8001B022827
:1003100040F2A7807FE70020386600F0B1F804467D
:100320003068810140F1A18000F0AAF8001B02288A
:10033000F6D970E720784F4F81071BD5B06810F0D1
:100340000C0F09D0B06800F00C0008287FF479AFDA
:10035000706841023FF575AF3068810703D5E068EA
:1003600001287FF42DAF3168206921F0F80141EABE
:10037000C0013160217808070DD560693E49002829
:100380003FF47DAF01220A6000F07AF80546706FF5
:1003900081077FF54FAF207841073AD5306C0025B3
:1003A000C1000AD400950125316C41F080513164BF
:1003B000306C00F0805000900098DFF8C080D8F8D2
:1003C0000000C1051BD4D8F8000040F48070C8F8C4
:1003D000000000F055F88146D8F80000C1050ED4A1
:1003E00000F04EF8A0EB09000228F5D913E73068B9
:1003F000216920F0F80040EAC1003060BAE7A06847
:1004000001287FF449AF4DE71DB1306C20F08050DA
:100410003064A06948B3B16801F00C0108293FF4C9
:10042000CFAE02287FF477AF0020386600F028F8BE
:100430000546306881013FF560AFE269206A616A74
:100440000243A06A400842EA8112401E42EA00428A
:10045000E06A42EA006272600121396600F010F839
:100460000446306881017FF54FAF0020BDE8F2837C
:100470000038024000004742800E474200700040B2
:1004800001484068704700BF0000002070B5044676
:1004900000250CB9012070BD04F13C06706820B93C
:1004A000B5603070204600F082F97068C10610D443
:1004B000706820F4885040F002007060204600F020
:1004C000AAF8B560716821F0020141F00101716084
:1004D00000E0012500203070284670BD0068C06C27
:1004E000704778B502460020009092F83C30012B0E
:1004F00001D1022072BD012082F83C0007240B6864
:1005000010680A2B11D30A3BC56803EB430300F0C4
:1005100076F8C460C3680D688C68A5F10A0606EB1E
:100520004606B4402343C3600FE0056903EB430371
:1005300004FA03F325EA0303036103690D688C6879
:1005400005EB4505AC40234303611F244B68072B93
:100550000CD25B1E456B00F050F84463436B4D6852
:100560000C886E1E00F044F843631BE00D2B0CD288
:10057000DB1F056B00F041F80463036B4D680C88CA
:10058000EE1F00F035F803630CE00D3BC56A00F088
:1005900034F8C462C36A4D680C88A5F10D0600F0FA
:1005A00027F8C362594B98421DD10C685848122C49
:1005B00003D1036843F4800303600B68102B18BF5A
:1005C000112B10D1036843F400030360086810285E
:1005D00009D151494F4C0B68B3FBF4F40A20444352
:1005E000009400F010F8002182F83C10002072BD49
:1005F00006EB8606B4402343704703EB83039C401D
:1006000025EA0404704702E00098401E009000981C
:100610000028F9D170473E4A116821F44031116039
:10062000136841680B4313600268536823F48073B6
:1006300053605168036941EA03215160516821F018
:1006400040715160536881680B435360936823F491
:10065000006393609368C1680B4393602F49836A7A
:100660008B4210D0936823F0706393609368816A23
:100670000B439360936823F0405393609368C16A7F
:100680000B43936007E0916821F07061916091687D
:1006900021F040519160916821F0020191609168D0
:1006A000836941EA43019160016A002951680CD0D5
:1006B00041F400615160516821F46041516051681A
:1006C000436A5B1E41EA433101E021F4006151605D
:1006D000D16A21F47001D162D16AC3695B1E41EA1B
:1006E0000351D162916821F4007191609168036BAC
:1006F00041EA43219160916821F4806191609168A1
:10070000406941EA8021916070470000002001406B
:100710000423014040420F000C0000200100000FA4
:1007200080B50020009000223048416841F48041AB
:100730004160416801F48041009100990092036892
:1007400043F080530360006800F0805000900098F0
:10075000032000F060F8002200216FF00B0000F091
:1007600067F8002200216FF00A0000F061F8002213
:1007700000216FF0090000F05BF8002200216FF00B
:10078000040000F055F8002200216FF0030000F093
:100790004FF8002200216FF0010000F049F8BDE899
:1007A0000840002200214FF0FF3000F041B80068FF
:1007B0000F49884200D0704780B586B000220D48AE
:1007C00000920322016841F48071016001210068F8
:1007D00000F4807000900098074801910292002177
:1007E000039101A900F08CF807B000BD4038024029
:1007F000002001404438024000000240090102008C
:1008000006D52A4A00F00F00104400F8041C704777
:10081000274B19547047274B19684FF6FF02000207
:10082000114000F4E0600843234908431860704712
:1008300038B5204B1C68C4F30223C3F10704052C10
:1008400028BF04241D1D072D34BF0023DB1E0125F6
:1008500005FA04F4641E2140994005FA03F35B1E77
:100860001A401143BDE83440C8E710B5401EB0F14E
:10087000807F01D3012010BD104C60600F214FF02C
:10088000FF30FFF7BBFF0021A160072020600020A0
:1008900010BD0428094904D1086840F0040008602C
:1008A00070470A6822F004020A60704718ED00E001
:1008B00000E400E00CED00E00000FA0510E000E0CC
:1008C00000F000B8704730B4002513E050F8042B56
:1008D000D30744BFA9F101039A18091F042942F85C
:1008E000045BFAD213468C0744BF15809B1CC907D2
:1008F00048BF1D7050F8041B0029E7D130BC704779
:100900002DE9F84702460B46002466480F210127CF
:100910001D68A74007EA0508B84540F0BD805D683E
:10092000022D18BF122D4FEA840911D1E50802EB00
:10093000850C09F01C05DCF820E0D3F810A001FAC2
:1009400005F62EEA06060AFA05F53543CCF82050DE
:100950004FEA440C0326156806FA0CF66FEA060EF9
:100960001E7906F003060EEA050506FA0CF6354375
:1009700015605D68012D18BF022D03D0112D18BF21
:10098000122D10D19568DE680EEA050506FA0CF600
:1009900035439560556825EA07075D68C5F300157E
:1009A000A5402F435760D7680EEA07059F6807FAEE
:1009B0000CF63543D5605D68EF006DD500250095D8
:1009C00009F00C090768384E47F48047076001FAC0
:1009D00009FE056805F480450095009FA70856F8B4
:1009E000275025EA0E0E314DAA4208BF002522D01D
:1009F0002F4DAA4208BF01251DD02E4DAA4208BF87
:100A0000022518D02C4DAA4208BF032513D02B4D28
:100A1000AA4208BF04250ED0294DAA4208BF0525C9
:100A200009D0284DAA4208BF062504D0264DAA4267
:100A30000CBF0725082505FA09F545EA0E0546F815
:100A400027506FEA0807214E356807EA050C5D68F4
:100A5000ED0348BF48EA0C0CC6F800C0756807EA09
:100A6000050C5D68AD0348BF48EA0C0CC6F804C02D
:100A7000B56807EA050C5D68ED0248BF48EA0C0C52
:100A8000C6F808C0F56807EA050C5F68BD0248BFF4
:100A900048EA0C0CC6F80CC0641C0F2C7FF637AF6C
:100AA000BDE8F187443802400838014000000240A8
:100AB0000004024000080240000C02400010024006
:100AC0000014024000180240001C0240003C01409B
:100AD000BBBBE1B1B2F5803F80F07E80022A1ED917
:100AE0008C46B1FBF2F102FB11C31B0443EA104335
:100AF000B3FBF2FC02FB1C3380B240EA0343B3FBBE
:100B0000F2F002FB103240EA0C4000237047022A48
:100B100005D98446B0FBF2F002FB10C270474AB11F
:100B200005D100F0010249085FEA30007047002259
:100B30000023704700F0E4B80B0002000021002001
:100B40007047904271EB030CF6D3B3F5803F2FD280
:100B5000F0B5B3FA83F7B1FA81F4A7F10F0E3D1B9C
:100B60005340CEF1200602FA0EF2F3415340B5F1A4
:100B70000F0746D80F3C2C444140C4F12006A0404A
:100B8000F1414140B1FBF3F603FB1611A2FB064510
:100B9000001BA94102D2761E8018594180EA010249
:100BA00021FA0EF362FA0EF200215A403046F0BDEF
:100BB00030B4B1FBF3FC03FB1C11A2FB0C45001B82
:100BC000A94103D2ACF1010C8018594130BC024656
:100BD0000B46604600217047B2F1807F65D3F0B5C7
:100BE000B2FA82F7B1FA81F4C7F10F063D1B22FA7F
:100BF00006F307F1110EF24120355A40B5F10F0707
:100C0000B8D94140C4F12006A040F1414140B1FBB8
:100C1000F3FC03FB1C11A2FB0C45001BA94103D2F2
:100C2000BCF1010C801859410F2F12D30F3FC9039B
:100C300041EA5041B1FBF3F603FB1611A2FB064556
:100C4000D4EBC030A94102D2761E8018594146EA41
:100C5000CC3C07B34140C7F12006B840F1414140C8
:100C6000B1FBF3F603FB1611A2FB0645001BA941DD
:100C700002D2761E8018594180EA010221FA0EF351
:100C8000C7F1200462FA0EF20CFA07F05A402CFA6F
:100C900004F13043F0BD80EA010221FA0EF3002195
:100CA00062FA0EF260465A40F0BD8C46B1FBF2F19A
:100CB00002FB11C31B0243EA1063B3FBF2FC02FB0D
:100CC0001C331B024CEA002043EA1063B3FBF2FC26
:100CD00002FB1C331B024CEA002043EA1063B3FB07
:100CE000F2FC02FB1C331B024CEA002043EA1063B7
:100CF000B3FBF2FC02FB1C324CEA002000237047DD
:100D0000704700002DE9F04104000F4677D0414EB6
:100D1000306800F00F00B84202D200F072F86ED1D5
:100D200020683D4D810712D5400703D5A96841F4DD
:100D3000E051A9602078010703D5A86840F460401D
:100D4000A860A968A06821F0F0010143A96021789A
:100D5000C8074CD56068012802D129688A0305E0DC
:100D6000022818BF032803D129688A0103D446E06A
:100D700029688A0743D5A968890840EA8100A860E4
:100D8000FFF77EFB8046A868616800F00C00B0EBBE
:100D9000810F2CD0FFF774FBA0EB080041F28931E2
:100DA0008842F0D3032020E02078410705D5AA68C7
:100DB000E06822F4E0520243AA602178080706D5D1
:100DC000A968206921F4604141EAC001A96000F0EE
:100DD00029F8AA681149124BC2F30312895CC84072
:100DE0001860002000F04EF80020BDE8F081306867
:100DF00000F00F008742D7D200F003F8D4D00120D2
:100E0000F3E73770316801F00F01B94270470448C9
:100E100000687047003C0240003802409C10000807
:100E20000C00002030B5144C606800F00C00042861
:100E300002D0082802D01DE0104830BD226820688A
:100E40000023410202F03F0204D525680B49C5F397
:100E5000881003E020680A49C0F38810A1FB000154
:100E6000FFF736FE2168C1F30141491C4900B0FB80
:100E7000F1F030BD024830BD0438024040787D01B9
:100E80000024F40038B50D4D0D4B2A7804464FF47C
:100E90007A711868B1FBF2F2B0FBF2F0FFF7E5FCF3
:100EA00050B9102C08D2002221464FF0FF30FFF736
:100EB000BFFCAC60002032BD012032BD000000202C
:100EC0000C00002010B586B000F0A6F800F04FF836
:100ED00000200090494C4A48016841F0010101603E
:100EE000026802F0010200920022009900924FF481
:100EF0000041036843F008030360006800F0080045
:100F0000009000983F4801910292039201A9FFF7D7
:100F1000F7FC3D4820604FF4403100202061206202
:100F2000616001213948A062A16101204FF0007287
:100F30000021E0616061A260E162E160216320461E
:100F4000FFF7A4FA00B1FEE701210090019107220A
:100F5000029269462046FFF7C4FA00B1FEE7204638
:100F6000FFF794FA2046FFF7B9FAA064FAE780B5D4
:100F700092B00020009001232548016841F0805183
:100F800001600021006800F0805000900098214826
:100F90000091026842F4804202600222006800F47C
:100FA0008040009006A80099069210210022099323
:100FB0000A910C92FFF7E8F800B1FEE70F200190CC
:100FC0000021029103910491059101A8FFF79AFE77
:100FD00000B1FEE7FFF71BFF4FF47A71B0FBF1F0B1
:100FE000FFF743FC0420FFF754FC002200214FF0E0
:100FF000FF30FFF71DFC13B000BD00001000002003
:1010000030380240000C0240002001400100000F77
:10101000403802400070004080B50B48016841F440
:1010200000710160026842F480620260016841F46C
:10103000807101600320FFF7EEFB0020FFF722FF25
:10104000FFF76EFB002002BD003C02400E48016825
:1010500041F47001016000220C49086840F0010071
:1010600008608A600B680A480A4A03400B604A60BD
:1010700000200B68084A23F480230B60C8604FF0FF
:10108000006111607047000088ED00E00038024008
:10109000FFFFF6FE1030002408ED00E00000000025
:1010A00000000000010203040607080930B450F8EC
:1010B000041B79B10268436802440830DC0744BF6E
:1010C000A9F10104E31852F8045B43F8045B091F1B
:1010D000F9D1ECE730BC704710B5074979441831B5
:1010E000064C7C44163404E00A68081D1144884705
:1010F0000146A142F8D110BD2C0000004C000000B8
:101100004EF68851CEF20001086840F47000086085
:10111000BFF34F8FBFF36F8F4FF00070E1EE100AF7
:1011200070470000A3F7FFFF4C00000010000020F4
:101130000000000079FFFFFF100000009400000095
:1011400000000020000000007047FEE7FEE7FEE719
:10115000FEE770477047704780B500F005F8BDE8BE
:101160000140FFF7ADBB00000248416802788A18D1
:10117000426070470000002000F00DF8002801D008
:10118000FFF7AAFFAFF300800020AFF30080FFF766
:1011900099FE00F002F80120704700F001B800004D
:1011A0000746384600F002F8FBE7000080B5AFF3D1
:1011B0000080024A11001820ABBEFBE726000200A7
:1011C00001488047014800474D100008E111000820
:1011D0000100000000000000100000000024F400E6
:1011E000AFF30080FFF78CFFFFF7C6FFFFF7FEBFEE
:1011F000FFF7FEBFFFF7FEBFFFF7FEBFFFF7FEBF23
:10120000FFF7FEBFFFF7FEBFFFF7FEBFFFF7FEBF12
:10121000FFF7FEBFFFF7FEBFFFF7FEBFFFF7FEBF02
:10122000FFF7FEBFFFF7FEBFFFF7FEBFFFF7FEBFF2
:10123000FFF7FEBFFFF7FEBFFFF7FEBFFFF7FEBFE2
:10124000FFF7FEBFFFF7FEBFFFF7FEBFFFF7FEBFD2
:10125000FFF7FEBFFFF7FEBFFFF7FEBFFFF7FEBFC2
:10126000FFF7FEBFFFF7FEBFFFF7FEBFFFF7FEBFB2
:10127000FFF7FEBFFFF7FEBFFFF7FEBFFFF7FEBFA2
:10128000FFF7FEBFFFF7FEBFFFF7FEBFFFF7FEBF92
:10129000FFF7FEBFFFF7FEBFFFF7FEBFFFF7FEBF82
:1012A000FFF7FEBFFFF7FEBFFFF7FEBFFFF7FEBF72
:1012B000FFF7FEBFFFF7FEBFFFF7FEBFFFF7FEBF62
:1012C000FFF7FEBFFFF7FEBFFFF7FEBFFFF7FEBF52
:1012D000FFF7FEBFFFF7FEBFFFF7FEBFFFF7FEBF42
:1012E000FFF7FEBFFFF7FEBFFFF7FEBFFFF7FEBF32
:1012F000FFF7FEBFFFF7FEBFFFF7FEBFFFF7FEBF22
:10130000FFF7FEBFFFF7FEBFFFF7FEBFFFF7FEBF11
:10131000FFF7FEBFFFF7FEBFFFF7FEBFFFF7FEBF01
:10132000FFF7FEBFFFF7FEBFFFF7FEBFFFF7FEBFF1
:04000005080011E1FD
:00000001FF
