:020000040800F2
:10000000780400209D0100088F140008CF1000081C
:100010008D14000885020008A115000800000000EA
:10002000000000000000000000000000B314000801
:100030008702000800000000B1140008B514000891
:10004000B7010008B7010008B7010008B7010008B0
:10005000B7010008B7010008B7010008B7010008A0
:10006000B7010008B7010008B7010008B701000890
:10007000B7010008B7010008B7010008B701000880
:10008000B7010008B7010008B7010008B701000870
:10009000B7010008B7010008B7010008B701000860
:1000A000B7010008B7010008B7010008B701000850
:1000B000B7010008B7010008B7010008B701000840
:1000C000B7010008B7010008B7010008B701000830
:1000D000B7010008B7010008B7010008B701000820
:1000E000B7010008B7010008B7010008B701000810
:1000F000B7010008B7010008B7010008B701000800
:10010000B7010008B7010008B7010008B7010008EF
:10011000B7010008B7010008B7010008B7010008DF
:10012000B7010008B7010008B7010008B7010008CF
:10013000B7010008B7010008B7010008B7010008BF
:10014000B7010008B7010008B7010008B7010008AF
:10015000B7010008B7010008B7010008B70100089F
:10016000B7010008B7010008B7010008B70100088F
:10017000B7010008B7010008B7010008000000003F
:10018000B7010008B7010008DFF80CD000F068F8EC
:1001900000480047C1150008780400200648804741
:1001A00006480047FEE7FEE7FEE7FEE7FEE7FEE75C
:1001B000FEE7FEE7FEE7FEE74D15000889010008AF
:1001C0002DE9F05F0546002092469B46884606468C
:1001D000814640241BE0284641464746224600F01F
:1001E0002FF853465A46C01A914110D3114618466B
:1001F000224600F016F82D1A67EB01084F462246FA
:100200000120002100F00DF817EB00094E41201EDF
:10021000A4F10104DFDC484631462A464346BDE8E6
:10022000F09F202A04DB203A00FA02F100207047F8
:100230009140C2F1200320FA03F319439040704724
:10024000202A04DB203A21FA02F00021704721FA2B
:1002500002F3D040C2F12002914008431946704792
:10026000064C074D06E0E06840F0010394E8070003
:1002700098471034AC42F6D3FFF78AFF7416000893
:1002800094160008FEE7704770B5044600F0E6F8E3
:100290000546601C02D004480078044400F0DEF8F3
:1002A000401BA042FAD370BD040000202DE9F84F96
:1002B000DFF87CB100224FF001084FF0030A4FF045
:1002C0000F090BF1040E00BF0B6808FA02F423407B
:1002D000A3426ED14D68022D01D0122D0ED1D5084A
:1002E00000EB850CDCF820505607F70E09FA07F6EC
:1002F000B5430E69BE402E43CCF820600668550019
:100300000F790AFA05FC07F0030726EA0C06AF404E
:10031000374307604E68012E05D0022E03D0112E00
:1003200001D0122E0ED18668CF6826EA0C06AF40A7
:10033000374387604668A6430C79C4F300149440A1
:1003400034434460C6688C6826EA0C06AC403443EB
:10035000C4604C68E40065D5364C256845F480459A
:100360002560246822F0030504F480440094324C94
:100370002E19D6F8084895072F0F09FA07F5AC4350
:100380002E4DA84201D1002524E02D4DA84201D1D7
:1003900001251FE02B4DA84201D102251AE02A4D6C
:1003A000A84201D1032515E0284DA84202D1042519
:1003B00010E037E0264DA84201D105250AE0254D81
:1003C000A84201D1062505E0234DA84201D1072509
:1003D00000E00825BD402543C6F80858DBF800407A
:1003E0005D464E689C43F60300D51C432C60DEF846
:1003F000004075464E689C43B60300D51C432C60F4
:100400000B4D08352C684E689C43F60200D51C4302
:100410002C60074D0C352C684E689C43B60200D505
:100420001C432C60521C102AFFF44EAFBDE8F88F1D
:10043000003C0140443802400030014000000240CE
:100440000004024000080240000C0240001002407C
:100450000014024000180240001C0240014880685D
:10046000704700000400002070B5040004D094F828
:100470003D00002510B106E0012070BD84F83C501D
:10048000204600F0B5FA242084F83D002068016879
:1004900021F00101016000F025FC33492268B0FB26
:1004A000F1F15160314A6368934206D94FF4967373
:1004B00059434FF47A73B1FBF3F12368491C196275
:1004C000616891420BD84900B0FBF1F2C2F30B0214
:1004D000042A01D2042019E0B0FBF1F016E0A36871
:1004E0009BB301EBC10202EB0112B0FBF2F242F44A
:1004F0008042120530D04BB301EBC10202EB011177
:10050000B0FBF1F040F4804040F400402168C86145
:10051000D4E90701084321680860D4E903100843BF
:1005200021688860D4E9050108432168C860206813
:10053000016841F0010101602564202084F83D003C
:10054000256384F83E50002070BD00E006E001EB1A
:100550004102B0FBF2F2CCE70120D7E701EB410109
:10056000B0FBF1F0D0E7000040420F00A086010090
:100570002DE9FF4F81B099468B4604464FF00108A4
:10058000FFF76CFF054694F83D0020287BD1192326
:1005900001224D492046009500F08FFE002872D1BF
:1005A00094F83C0001286ED0012084F83C002068BB
:1005B0000168C90703D1016841F0010101602068A9
:1005C000016821F400610160242084F83D000026C8
:1005D00026643E48E06220272068016841F480716B
:1005E00001604B4600224FF001112046009500F0BB
:1005F00064FE002858D121680BF0FE000861FFF767
:100600002DFF2168054648694969C0F3400094F808
:100610003D20C1F380214FF0A00A12E0B9F1000F94
:1006200004D0FFF71BFF411B494501D984F83DA0C9
:10063000216848694969C0F3400094F83D20C1F33E
:100640008021084301D1A02AE8D184F83D702068B8
:100650004169C943890717D4016841F400710160F9
:1006600020684169806919230122174920460095B5
:1006700000F023FEC0B984F83D7084F83C6000208F
:1006800005B0BDE8F08F1DE0016841F40071016024
:1006900021686FF480604861192301220A492046CD
:1006A000009500F00AFE08B10320E9E741460398EF
:1006B00008F1010881428FD384F83D7084F83C60D2
:1006C0000120DDE70220DBE7020010000000FFFF51
:1006D0002DE9F84F1F4690468A460446DDF82890DB
:1006E000FFF7BCFE054694F83D0020286FD1192382
:1006F00001226E492046009500F0DFFD0028F5D16B
:1007000094F83C00012862D0012084F83C00206865
:100710000168C90703D1016841F001010160206847
:10072000016821F400610160222084F83D0010205E
:1007300084F83E0000262664C4F8248067855C485F
:10074000E062608D20852B464A465146204600F0E7
:10075000D3FC28B1206C84F83C60042841D04DE0E3
:10076000208D544F68B1012814D0022820680168F8
:1007700016D041F480610160206841698069009071
:1007800085E02068416981690091016841F4007148
:1007900001607CE02068016821F480610160F0E77D
:1007A00021F4806101602068016841F40061E2E7A2
:1007B000032849D801280BD0022817D04B46002225
:1007C00039462046009500F078FDB8B92AE06AE085
:1007D0002A464946204600F0E5FD28B1206C202835
:1007E0000CD00120BDE8F88F206845E04B46002280
:1007F00039462046009500F060FD08B10320F1E77E
:100800002068016841F40071016020680169606A34
:10081000421C62620170208D401E2085608D401E4A
:100820006085E1E72068016821F48061016020684B
:100830000169606A421C62620170208D401E208541
:10084000608D401E6085D1E72A464946204600F06B
:10085000A9FD0028C2D120680269606A411C61625A
:100860000270208D401E2085608D401E60852068AE
:100870004169C94349070AD40169606A421C62623E
:100880000170208D401E2085608D401E6085208D6A
:1008900000288DD1202084F83D0084F83E6084F843
:1008A0003C6000209EE702209CE700000200100050
:1008B0000000FFFF040001002DE9F84F1F4690469D
:1008C0008A460446DDF82890FFF7C8FD064694F8EE
:1008D0003D0020287ED1192301224349204600965D
:1008E00000F0EBFC00287DD194F83C00012879D081
:1008F000012084F83C0020680168C90703D1016821
:1009000041F0010101602068016821F4006101608B
:10091000212084F83D00102084F83E000025256445
:10092000C4F8248067853148E062608D20853346B5
:100930004A465146204600F04FFC28B1206C84F80E
:100940003C5004284CD00DE020684169806900903B
:1009500030E032464946204600F055FD28B1206C73
:10096000042838D00320BDE8F88F606A411C61621A
:10097000216800780861608D401E6085208D401ED2
:1009800080B2208521684A69D24352070BD450B106
:10099000606A421C626200780861608D401E60855A
:1009A000208D401E208532464946204600F05EFCE0
:1009B0000028D4D1208D0028CBD154F83D0B0168FC
:1009C00041F400710160202004F81E09E577657785
:1009D0000020C8E706E02068016841F4007101606A
:1009E0000120C0E70220BEE7020010000000FFFF68
:1009F00000B500680E4987B0884216D1C02000902B
:100A00001220019001200290032003900420049002
:100A100069460848FFF74AFC0748016841F400119D
:100A20000160006800F40010059007B000BD0000F0
:100A300000540040000402404038024002488168EF
:100A40000278114481607047040000200B4810B503
:100A5000016841F400710160016841F48061016046
:100A6000016841F480710160032000F08BF80020E0
:100A700000F006F800F024F8002010BD003C024011
:100A800070B50D4D04464FF47A712878B1FBF0F043
:100A90000A490968B1FBF0F000F001FB48B9102CDD
:100AA00007D200222146501E00F04CF800206C6056
:100AB00070BD012070BD0000040000201000002067
:100AC0001F4808B5016841F480410160006800F4E6
:100AD000804000901A48001F016841F08051016079
:100AE000006800F080500090032000F04BF80022D6
:100AF00011466FF00B0000F025F8002211466FF050
:100B00000A0000F01FF8002211466FF0090000F003
:100B100019F800221146501F00F014F80022114667
:100B2000101F00F00FF800221146901E00F00AF886
:100B30000022BDE808401146501E00F003B8000036
:100B400044380240F0B40E4B1B680C46C3F302233A
:100B5000C3F10705042D00D90425191D072901D269
:100B6000002300E0DB1E012606FA05F1491E2140A4
:100B700099409E40761E16403143F0BC00F088BC80
:100B80000CED00E0064900F0070208684FF6FF038D
:100B9000184040EA0220034A1043086070470000F2
:100BA0000CED00E00000FA052DE9F0470E460500C7
:100BB00065D0DFF81481D8F80000F7B200F00F001C
:100BC000B04207D288F80070D8F8000000F00F009B
:100BD000B04254D128683D4C810712D5400703D557
:100BE000206840F4E05020602878000703D5206892
:100BF00040F4604020602068A96820F0F0000843BD
:100C000020602878C0072DD030496868083901284D
:100C100012D0022813D0032811D0096889070029AF
:100C20002DDA216821F0030101432160FFF716FC52
:100C3000814641F2883A0EE009688903EFE70968C6
:100C40008901ECE7FFF70AFCA0EB0901514502D945
:100C50000320BDE8F0872068696800F00C00B0EB65
:100C6000810FEFD1D8F80010404601F00F01B142DA
:100C700007D90770006800F00F00B04201D00120D2
:100C8000E7E72878400705D52068E96820F4E050B8
:100C9000084320602878000706D52068296920F4D9
:100CA000604040EAC100206000F02CF82168084A4A
:100CB000C1F30311515CC840064908600020FFF7EA
:100CC000DFFE0020C5E70000003C0240083802407B
:100CD0005C16000810000020014800687047000002
:100CE000100000200448054900680968044AC1F35F
:100CF0008221515CC8407047100000200838024033
:100D00006C160008154810B5006810F00C02144865
:100D100013D01449042A0FD0082A0ED10F4C241FD7
:100D20002268236802F03F025B0207D52068C0F307
:100D30008810A0FB010106E0084610BD2168C1F340
:100D40008811A1FB00010023FFF73AFA2168C1F3E3
:100D50000141491C4900B0FBF1F010BD08380240C8
:100D60000024F40040787D012DE9F84F050076D08D
:100D70002878DFF8F8B2BE4CC00749D0DBF8001085
:100D80005846C1F38101012908D00068C0F38100F1
:100D900002280AD1201D0068400206D52068800381
:100DA00036D568680028E2D032E06868B0F5803F48
:100DB00010D0B0F5A02F206810D020F48030206033
:100DC000206820F4802020606868A0B1FFF746FB0F
:100DD00006460CE0206840F48030F4E740F48020C0
:100DE0002060F7E7FFF73AFB801B642873D8206880
:100DF0008003F7D50CE0FFF731FB064605E000BFA6
:100E0000FFF72CFB801B6428F0D820688003F7D400
:100E10002878DFF8608280074FF000093ED5DBF8C4
:100E20000010584611F00C0F09D00068C0F3810083
:100E300002280BD18D48001F0068400206D42068AC
:100E4000800715D5E868012809D111E0E868B8B134
:100E50000120C8F80000FFF701FB064605E002E1AB
:100E6000FFF7FCFA801B0228C0D820688007F7D55E
:100E70002068296920F0F80040EAC10020600DE0F8
:100E8000C8F80090FFF7EAFA064604E0FFF7E6FA32
:100E9000801B02281FD820688007F7D42878000715
:100EA00022D5724E744869696C3671B101210160B6
:100EB000FFF7D4FA074604E0FFF7D0FAC01B022878
:100EC00009D830688007F7D50EE0C0F80090FFF72A
:100ED000C5FA074605E083E0FFF7C0FAC01B022809
:100EE0007ED830688007F7D42878400768D5DFF8C7
:100EF0007CA100270AF1380ADAF80000C0000BD400
:100F0000DAF8001041F08051CAF80010DAF8000059
:100F1000012700F080500090584E3068C00510D472
:100F2000306840F480703060FFF798FA009005E078
:100F3000FFF794FA0099401A022851D83068C0058A
:100F4000F6D54A4EA868683601280FD005283068C3
:100F500010D020F001003060306820F004003060D4
:100F6000A868B8B1FFF77AFA00900FE0306840F057
:100F70000100F4E740F004003060F7E7FFF76EFA95
:100F80000099411A41F28830814264D83068800764
:100F9000F4D50EE0FFF762FA009007E0FFF75EFA83
:100FA0000099411A41F28830814254D83068800754
:100FB000F4D42FB1DAF8001021F08051CAF80010F3
:100FC000A869C0B3DBF80010C1F3810102294AD03F
:100FD0000228484607D0C8F86000FFF73FFA00E053
:100FE00039E005463AE04746C8F86000FFF736FAB0
:100FF000064604E0FFF732FA801B02282BD820684F
:101000008001F7D4D5E907010843A96A1C4A4908B9
:1010100002EB01416A6A41EA8211084395F82C10FB
:1010200040EA01611148001F016001203866FFF7A6
:1010300015FA054605E014E0FFF710FA401B0228F8
:1010400009D820688001F7D50BE000BFFFF706FA4A
:10105000401B022802D90320BDE8F88F20688001D8
:10106000F4D40020F8E70120F6E700000838024039
:101070000038024000004742800E474200700040A6
:101080000000FFFF4FF0E0210428086903D020F0A2
:1010900004000861704740F00400FAE7704710B59B
:1010A000401EB0F1807F01D3012010BD4FF0E0243D
:1010B00060610F21601700F0EBF90020A0610720AC
:1010C0002061002010BD10B5FFF7E8FF10BDFEE75E
:1010D00001684A69D24352050CD46FF480624A61B8
:1010E00004210164002140F8301F20224273017363
:1010F00001207047002070472DE9F84F0446C06A70
:101100001E4692460D4621680A6842F480620A60D3
:10111000042807D0012805D010F5803F02D0206BAD
:10112000112804D12068016841F4807101604FF0FA
:1011300001185346002241462046009600F0BDF8B3
:10114000B8BB206908F10109B0F5804F12D0062024
:10115000216800EAD51747F0F0000861334652468F
:1011600008F10701204600F0D9F838B1206C0428B6
:101170002FD01EE0E8B240F001001FE02168E8B285
:101180000861334652464946204600F0C7F8002819
:10119000ECD12068416981690091016841F4807156
:1011A00001605346002241462046009600F085F833
:1011B00010B10320BDE8F88F47F0F1002168086105
:1011C000334652464946204600F0A8F80028CDD1C3
:1011D000F0E70120EEE70000F8B50446C06A1E46BD
:1011E0000D461746042807D0012805D010F5803F8A
:1011F00002D0206B122804D12068016841F480716C
:101200000160134600224FF001112046009600F0C5
:1012100054F8A0B92069B0F5804F12D0062021689B
:1012200000EAD51040F0F000086133463A460E4916
:10123000204600F073F838B1206C042811D0032048
:10124000F8BD05F0FE0000E0E8B22168086106493B
:1012500033463A46891F204600F060F80028EBD15B
:10126000F8BD0120F8BD00000800010070B5164669
:101270000D4604461AE02046FFF72AFF08B1012078
:1012800070BD681C12D025B1FFF7E8F8801BA8429A
:101290000CD954F8400F40F0200044F81009002009
:1012A0002060202161732073032070BD2068406995
:1012B000C0434007DFD4002070BD2DE9F0471E4633
:1012C00090460D460446C1F30747DDF8209012E032
:1012D000701C10D02EB1FFF7C1F8A0EB0900B0428E
:1012E00009D9002044F8300F20216173A0732073C6
:1012F0000320BDE8F0872068012F0AD0806925EA25
:1013000000000004000C06D000214145E0D0002080
:10131000EFE74069F3E70121F7E700002DE9F04727
:101320009A4691460D46044600264FF02008C1F328
:1013300007472AE020684069C043400512D420686E
:10134000016841F40071016021686FF480604861B8
:1013500004202064266384F83D8084F83C600120EA
:10136000BDE8F087B9F1FF3F0FD0B9F1000F05D00C
:10137000FFF774F8A0EB0A01494506D944F8306F2D
:1013800084F80D8026730320EAE72068012F07D038
:10139000D0F8180025EA00000004000CE0D0C9E7EE
:1013A0004069F7E72DE9F041002590460E460446D6
:1013B000202721E04069C043C0060CD421686FF0AB
:1013C000100048612564256384F83D7084F83C5022
:1013D0000120BDE8F0812EB1FFF740F8A0EB080036
:1013E000B04209D954F8400F40F0200044F80409F5
:1013F000677025700320ECE720684169C9434906FE
:10140000D8D40020E5E770B516460D4604461AE02C
:101410002046FFF75DFE08B1012070BD681C12D0A8
:1014200025B1FFF71BF8801BA8420CD954F8400FD8
:1014300040F0200044F81009002020602021617352
:101440002073032070BD20684069C0430006DFD4CC
:10145000002070BD0B4810B5094901600A49416080
:1014600000214FF480428160C0E903124161816133
:10147000C1610162FEF7F8FF002800D0FEE710BD51
:101480000054004020000020A0860100FEE77047C5
:101490000907090E002806DA00F00F0000F1E0202D
:1014A00080F8141D704700F1E02080F800147047A8
:1014B0007047704710B5FFF7C1FABDE81040FFF75D
:1014C00002BE000010B51F4892B00024016841F030
:1014D00080510160006800F0805011901A48016846
:1014E00041F4804101600068069400F4804011904E
:1014F0000220009001200390102004906846FFF71E
:1015000033FC00B1FEE70F20CDE90C040E940F94DC
:1015100000210CA81094FFF747FB00B1FEE7FFF78E
:10152000DBFB4FF47A71B0FBF1F0FFF7B8FD04205C
:10153000FFF7A8FD00221146501EFFF703FB12B073
:1015400010BD0000403802400070004010480168A3
:1015500041F4700101600F48016841F00101016030
:101560000C4A00210832116002680B4B1A400260DD
:10157000031D0A4A1A60026822F4802202600548AC
:101580000C3001600249580680390860704700003D
:1015900088ED00E000380240FFFFF6FE1030002426
:1015A000FEE702E008C8121F08C1002AFAD17047FE
:1015B0007047002001E001C1121F002AFBD17047D3
:1015C00008B5FFF743FAFFF77DFF214800270168C0
:1015D00041F002010160006800F002000090FFF796
:1015E00039FFB8460A23012241461A48FEF7C0FFD8
:1015F00020B108F1010808F0FF08F3E7164C1C20A1
:10160000661C84F800803070082070700A254146FE
:101610000223621C0F480095FFF74EF94FF03B087C
:1016200086F800800C4A00950123521C2178094855
:10163000FFF742F97770074A009506230C3A2178A4
:101640000448FFF745F86420FEF71EFEE8E70000B7
:101650003038024020000020000000200000000080
:101660000000000001020304060708090000000052
:10167000010203049416000800000020140000007A
:10168000A2150008A8160008140000206404000039
:10169000B21500080000000001000000100000006A
:0816A000000000000024F4002A
:040000050800018965
:00000001FF
