:020000040800F2
:10000000780800209D01000877110008EB0E000819
:100010007511000885020008891200080000000020
:100020000000000000000000000000009B1100081C
:100030008702000800000000991100089D110008C7
:10004000B7010008B7010008B7010008B7010008B0
:10005000B7010008B7010008B7010008B7010008A0
:10006000B7010008B7010008B7010008B701000890
:10007000B7010008B7010008B7010008B701000880
:10008000B7010008B7010008B7010008B701000870
:10009000B7010008B7010008B7010008B701000860
:1000A000B7010008B7010008B7010008B701000850
:1000B000B7010008B7010008B7010008B701000840
:1000C000B7010008B7010008B7010008B701000830
:1000D000B7010008B7010008B7010008B701000820
:1000E000B7010008B7010008B7010008B701000810
:1000F000B7010008B7010008B7010008B701000800
:10010000B7010008B7010008B7010008B7010008EF
:10011000B7010008B7010008B7010008B7010008DF
:10012000B7010008B7010008B7010008B7010008CF
:10013000B7010008B7010008B7010008B7010008BF
:10014000B7010008B7010008B7010008B7010008AF
:10015000B7010008B7010008B7010008B70100089F
:10016000B7010008B7010008B7010008B70100088F
:10017000B7010008B7010008B7010008000000003F
:10018000B7010008B7010008DFF80CD000F068F8EC
:1001900000480047A9120008780800200648804758
:1001A00006480047FEE7FEE7FEE7FEE7FEE7FEE75C
:1001B000FEE7FEE7FEE7FEE73512000889010008CA
:1001C0002DE9F05F0546002092469B46884606468C
:1001D000814640241BE0284641464746224600F01F
:1001E0002FF853465A46C01A914110D3114618466B
:1001F000224600F016F82D1A67EB01084F462246FA
:100200000120002100F00DF817EB00094E41201EDF
:10021000A4F10104DFDC484631462A464346BDE8E6
:10022000F09F202A04DB203A00FA02F100207047F8
:100230009140C2F1200320FA03F319439040704724
:10024000202A04DB203A21FA02F00021704721FA2B
:1002500002F3D040C2F12002914008431946704792
:10026000064C074D06E0E06840F0010394E8070003
:1002700098471034AC42F6D3FFF78AFF38230008C2
:1002800058230008FEE7704770B5044600F0E6F812
:100290000546601C02D004480078044400F0DEF8F3
:1002A000401BA042FAD370BD140000202DE9F84F86
:1002B000DFF87CB100224FF001084FF0030A4FF045
:1002C0000F090BF1040E00BF0B6808FA02F423407B
:1002D000A3426ED14D68022D01D0122D0ED1D5084A
:1002E00000EB850CDCF820505607F70E09FA07F6EC
:1002F000B5430E69BE402E43CCF820600668550019
:100300000F790AFA05FC07F0030726EA0C06AF404E
:10031000374307604E68012E05D0022E03D0112E00
:1003200001D0122E0ED18668CF6826EA0C06AF40A7
:10033000374387604668A6430C79C4F300149440A1
:1003400034434460C6688C6826EA0C06AC403443EB
:10035000C4604C68E40065D5364C256845F480459A
:100360002560246822F0030504F480440094324C94
:100370002E19D6F8084895072F0F09FA07F5AC4350
:100380002E4DA84201D1002524E02D4DA84201D1D7
:1003900001251FE02B4DA84201D102251AE02A4D6C
:1003A000A84201D1032515E0284DA84202D1042519
:1003B00010E037E0264DA84201D105250AE0254D81
:1003C000A84201D1062505E0234DA84201D1072509
:1003D00000E00825BD402543C6F80858DBF800407A
:1003E0005D464E689C43F60300D51C432C60DEF846
:1003F000004075464E689C43B60300D51C432C60F4
:100400000B4D08352C684E689C43F60200D51C4302
:100410002C60074D0C352C684E689C43B60200D505
:100420001C432C60521C102AFFF44EAFBDE8F88F1D
:10043000003C0140443802400030014000000240CE
:100440000004024000080240000C0240001002407C
:100450000014024000180240001C0240014880685D
:10046000704700001400002070B5040004D094F818
:100470003D00002510B106E0012070BD84F83C501D
:10048000204600F0C3F9242084F83D00206801686C
:1004900021F00101016000F033FB33492268B0FB19
:1004A000F1F15160314A6368934206D94FF4967373
:1004B00059434FF47A73B1FBF3F12368491C196275
:1004C000616891420BD84900B0FBF1F2C2F30B0214
:1004D000042A01D2042019E0B0FBF1F016E0A36871
:1004E0009BB301EBC10202EB0112B0FBF2F242F44A
:1004F0008042120530D04BB301EBC10202EB011177
:10050000B0FBF1F040F4804040F400402168C86145
:10051000D4E90701084321680860D4E903100843BF
:1005200021688860D4E9050108432168C860206813
:10053000016841F0010101602564202084F83D003C
:10054000256384F83E50002070BD00E006E001EB1A
:100550004102B0FBF2F2CCE70120D7E701EB410109
:10056000B0FBF1F0D0E7000040420F00A086010090
:100570002DE9FF4F81B099468B4604464FF00108A4
:10058000FFF76CFF054694F83D0020287BD1192326
:1005900001224D492046009500F033FD002872D11C
:1005A00094F83C0001286ED0012084F83C002068BB
:1005B0000168C90703D1016841F0010101602068A9
:1005C000016821F400610160242084F83D000026C8
:1005D00026643E48E06220272068016841F480716B
:1005E00001604B4600224FF001112046009500F0BB
:1005F00008FD002858D121680BF0FE000861FFF7C4
:100600002DFF2168054648694969C0F3400094F808
:100610003D20C1F380214FF0A00A12E0B9F1000F94
:1006200004D0FFF71BFF411B494501D984F83DA0C9
:10063000216848694969C0F3400094F83D20C1F33E
:100640008021084301D1A02AE8D184F83D702068B8
:100650004169C943890717D4016841F400710160F9
:1006600020684169806919230122174920460095B5
:1006700000F0C7FCC0B984F83D7084F83C600020ED
:1006800005B0BDE8F08F1DE0016841F40071016024
:1006900021686FF480604861192301220A492046CD
:1006A000009500F0AEFC08B10320E9E7414603984D
:1006B00008F1010881428FD384F83D7084F83C60D2
:1006C0000120DDE70220DBE7020010000000FFFF51
:1006D0002DE9FF4F83B09A46DDE911879346044622
:1006E000DDF84090FFF7BAFE064694F83D0020285A
:1006F0007DD11923012243492046009600F081FC58
:1007000000287CD194F83C00012878D0012084F89E
:100710003C0020680168C90703D1016841F001016C
:1007200001602068016821F400610160212084F8E3
:100730003D00402084F83E0000252564C4F8249044
:10074000A4F82A803048E062608D2085CDE90076EB
:1007500053465A462046049900F0DCFB80B3206CD7
:1007600084F83C50042848D008E0324639462046F8
:1007700000F0BCFC30B1206C042839D0032007B055
:10078000BDE8F08F606A411C6162216800780861F1
:10079000208D401E80B22085618D491E61852168B3
:1007A0004A69D24352070BD468B1606A421C626244
:1007B00000780861208D401E2085608D401E608578
:1007C000208D0028D1D132463946204600F0F2FB78
:1007D0000028D0D154F83D0B016841F4007101604C
:1007E000202004F81E09E57765770020C7E706E0BA
:1007F0002068016841F4007101600120BFE7022018
:10080000BDE70000020010000000FFFF00B5006817
:100810000E4987B0884216D1C02000901220019066
:1008200001200290032003900420049069460848A8
:10083000FFF73CFD0748016841F4001101600068C2
:1008400000F40010059007B000BD00000054004007
:100850000004024040380240024881680278114496
:1008600081607047140000200B4810B5016841F406
:1008700000710160016841F480610160016841F428
:1008800080710160032000F08BF8002000F006F872
:1008900000F024F8002010BD003C024070B50D4D62
:1008A00004464FF47A712878B1FBF0F00A490968E0
:1008B000B1FBF0F000F001FB48B9102C07D2002288
:1008C0002146501E00F04CF800206C6070BD0120E5
:1008D00070BD000014000020200000201F4808B553
:1008E000016841F480410160006800F4804000909C
:1008F0001A48001F016841F080510160006800F053
:1009000080500090032000F04BF8002211466FF059
:100910000B0000F025F8002211466FF00A0000F0ED
:100920001FF8002211466FF0090000F019F80022AC
:100930001146501F00F014F800221146101F00F05D
:100940000FF800221146901E00F00AF80022BDE8C0
:1009500008401146501E00F003B800004438024021
:10096000F0B40E4B1B680C46C3F30223C3F107051A
:10097000042D00D90425191D072901D2002300E008
:10098000DB1E012606FA05F1491E214099409E40D2
:10099000761E16403143F0BC00F0EEBB0CED00E0DB
:1009A000064900F0070208684FF6FF03184040EAC6
:1009B0000220034A10430860704700000CED00E07D
:1009C0000000FA052DE9F0470E46050065D0DFF876
:1009D0001481D8F80000F7B200F00F00B04207D23F
:1009E00088F80070D8F8000000F00F00B04254D131
:1009F00028683D4C810712D5400703D5206840F494
:100A0000E05020602878000703D5206840F460405B
:100A100020602068A96820F0F00008432060287852
:100A2000C0072DD0304968680839012812D0022843
:100A300013D0032811D00968890700292DDA21680D
:100A400021F0030101432160FFF708FD814641F2D7
:100A5000883A0EE009688903EFE709688901ECE745
:100A6000FFF7FCFCA0EB0901514502D90320BDE8CA
:100A7000F0872068696800F00C00B0EB810FEFD1BF
:100A8000D8F80010404601F00F01B14207D90770B5
:100A9000006800F00F00B04201D00120E7E728789D
:100AA000400705D52068E96820F4E050084320603D
:100AB0002878000706D52068296920F4604040EABC
:100AC000C100206000F02CF82168084AC1F303112E
:100AD000515CC840064908600020FFF7DFFE002097
:100AE000C5E70000003C024008380240202300080F
:100AF000200000200148006870470000200000200E
:100B00000448054900680968044AC1F38221515C20
:100B1000C8407047200000200838024030230008F9
:100B2000154810B5006810F00C02144813D0144991
:100B3000042A0FD0082A0ED10F4C241F22682368E4
:100B400002F03F025B0207D52068C0F38810A0FBCB
:100B5000010106E0084610BD2168C1F38811A1FB20
:100B600000010023FFF72CFB2168C1F30141491C60
:100B70004900B0FBF1F010BD083802400024F40039
:100B800040787D012DE9F84F050076D02878DFF810
:100B9000F8B2BE4CC00749D0DBF800105846C1F38C
:100BA0008101012908D00068C0F3810002280AD120
:100BB000201D0068400206D52068800336D568688D
:100BC0000028E2D032E06868B0F5803F10D0B0F580
:100BD000A02F206810D020F480302060206820F4FE
:100BE000802020606868A0B1FFF738FC06460CE062
:100BF000206840F48030F4E740F480202060F7E77C
:100C0000FFF72CFC801B642873D820688003F7D57D
:100C10000CE0FFF723FC064605E000BFFFF71EFCD3
:100C2000801B6428F0D820688003F7D42878DFF888
:100C3000608280074FF000093ED5DBF8001058466F
:100C400011F00C0F09D00068C0F3810002280BD10D
:100C50008D48001F0068400206D42068800715D523
:100C6000E868012809D111E0E868B8B10120C8F8A6
:100C70000000FFF7F3FB064605E002E1FFF7EEFB9D
:100C8000801B0228C0D820688007F7D52068296912
:100C900020F0F80040EAC10020600DE0C8F80090A4
:100CA000FFF7DCFB064604E0FFF7D8FB801B0228B9
:100CB0001FD820688007F7D42878000722D5724E05
:100CC000744869696C3671B101210160FFF7C6FB98
:100CD000074604E0FFF7C2FBC01B022809D83068B2
:100CE0008007F7D50EE0C0F80090FFF7B7FB074686
:100CF00005E083E0FFF7B2FBC01B02287ED8306816
:100D00008007F7D42878400768D5DFF87CA1002752
:100D10000AF1380ADAF80000C0000BD4DAF8001043
:100D200041F08051CAF80010DAF80000012700F005
:100D300080500090584E3068C00510D4306840F4A0
:100D400080703060FFF78AFB009005E0FFF786FBBC
:100D50000099401A022851D83068C005F6D54A4E8D
:100D6000A868683601280FD00528306810D020F018
:100D700001003060306820F004003060A868B8B12D
:100D8000FFF76CFB00900FE0306840F00100F4E7E3
:100D900040F004003060F7E7FFF760FB0099411A6C
:100DA00041F28830814264D830688007F4D50EE083
:100DB000FFF754FB009007E0FFF750FB0099411A42
:100DC00041F28830814254D830688007F4D42FB182
:100DD000DAF8001021F08051CAF80010A869C0B3F9
:100DE000DBF80010C1F3810102294AD002284846ED
:100DF00007D0C8F86000FFF731FB00E039E0054696
:100E00003AE04746C8F86000FFF728FB064604E0D2
:100E1000FFF724FB801B02282BD820688001F7D421
:100E2000D5E907010843A96A1C4A490802EB0141B8
:100E30006A6A41EA8211084395F82C1040EA016180
:100E40001148001F016001203866FFF707FB0546C7
:100E500005E014E0FFF702FB401B022809D82068D8
:100E60008001F7D50BE000BFFFF7F8FA401B02281E
:100E700002D90320BDE8F88F20688001F4D4002057
:100E8000F8E70120F6E70000083802400038024089
:100E900000004742800E4742007000400000FFFF04
:100EA0004FF0E0210428086903D020F00400086115
:100EB000704740F00400FAE7704710B5401EB0F1EB
:100EC000807F01D3012010BD4FF0E02460610F212D
:100ED000601700F051F90020A06107202061002078
:100EE00010BD10B5FFF7E8FF10BDFEE701684A69C5
:100EF000D24352050CD46FF480624A61042101642C
:100F0000002140F8301F20224273017301207047F6
:100F1000002070472DE9F843044600680D46DDE9DE
:100F2000089701689846164641F4807101604B4667
:100F300000224FF001112046009700F062F8E8B956
:100F4000216805F0FE0008613B464A4618492046E4
:100F500000F088F828B1206C04280FD10120BDE8EA
:100F6000F88320684169806900903A4649462046E6
:100F700000F0BCF820B1206C042813D00320EEE769
:100F8000F5B2B8F1010F09D02168300A08613A467C
:100F90004946204600F0AAF80028ECD120680561F7
:100FA0000020DCE72068016841F400710160D5E7AA
:100FB0000200010070B516460D4604461AE02046B0
:100FC000FFF794FF08B1012070BD681C12D025B155
:100FD000FFF744FA801BA8420CD954F8400F40F0A8
:100FE000200044F810090020206020216173207344
:100FF000032070BD20684069C0434007DFD4002053
:1010000070BD2DE9F0471E4690460D460446C1F3DB
:101010000747DDF8209012E0701C10D02EB1FFF7CA
:101020001DFAA0EB0900B04209D9002044F8300FA6
:1010300020216173A07320730320BDE8F08720682E
:10104000012F0AD0806925EA00000004000C06D0B8
:1010500000214145E0D00020EFE74069F3E701219E
:10106000F7E700002DE9F0479A4691460D46044601
:1010700000264FF02008C1F307472AE020684069A6
:10108000C043400512D42068016841F4007101603A
:1010900021686FF48060486104202064266384F82E
:1010A0003D8084F83C600120BDE8F087B9F1FF3F46
:1010B0000FD0B9F1000F05D0FFF7D0F9A0EB0A016E
:1010C000494506D944F8306F84F80D802673032013
:1010D000EAE72068012F07D0D0F8180025EA0000C1
:1010E0000004000CE0D0C9E74069F7E770B5164688
:1010F0000D4604461AE02046FFF7F8FE08B101202D
:1011000070BD681C12D025B1FFF7A8F9801BA8425A
:101110000CD954F8400F40F0200044F8100900208A
:101120002060202161732073032070BD2068406916
:10113000C0430006DFD4002070BD00000B4810B58E
:10114000094901600A49416000214FF480428160F1
:10115000C0E9031241618161C1610162FFF784F955
:10116000002800D0FEE710BD0054004024000020FD
:10117000A0860100FEE770470907090E002806DA7D
:1011800000F00F0000F1E02080F8141D704700F11E
:10119000E02080F8001470477047704710B5FFF7E3
:1011A0005BFBBDE81040FFF79CBE000010B51F4878
:1011B00092B00024016841F080510160006800F0A5
:1011C000805011901A48016841F480410160006824
:1011D000069400F4804011900220009001200390BA
:1011E000102004906846FFF7CDFC00B1FEE70F2009
:1011F000CDE90C040E940F9400210CA81094FFF775
:10120000E1FB00B1FEE7FFF775FC4FF47A71B0FB2C
:10121000F1F0FFF752FE0420FFF742FE00221146D4
:10122000501EFFF79DFB12B010BD00004038024079
:10123000007000401048016841F4700101600F48DF
:10124000016841F0010101600C4A0021083211607F
:1012500002680B4B1A400260031D0A4A1A600268BA
:1012600022F48022026005480C30016002495806D1
:10127000803908607047000088ED00E000380240C7
:10128000FFFFF6FE10300024FEE702E008C8121F40
:1012900008C1002AFAD170477047002001E001C15F
:1012A000121F002AFBD1704708B5FFF7DDFAFFF7E0
:1012B0007DFF1348016841F002010160006800F001
:1012C00002000090FFF73AFF00F024F800F070F8F9
:1012D000012000F05DF800F0D9F84FF47A70FEF7C5
:1012E000D3FF17210E2000F0CBF806480023D0E9E9
:1012F000001205A000F050F900F0C8F8FEE7000069
:1013000030380240040000204F4C4544205465739F
:101310007400000070B500252C460A2301222146E6
:101320000948FFF725F908B9782C06D0FF2C07D01B
:10133000641CE4B2002DF0D070BD0448047070BD90
:1013400000250124E9E7000024000020000000201F
:1013500070B5802813D2402911D20B4B012401F023
:1013600007051E79AC40094BC90800EBC1100EB14E
:1013700032B101E0012A03D0195CA143195470BDB8
:10138000195C2143FAE700000C00002078000020DF
:1013900010B5064A00214FF4806328B1FF2454544D
:1013A000491C9942F9D310BD0024F8E778000020C9
:1013B00010B56420FEF768FFAE2000F0DBF82020B7
:1013C00000F0D8F8102000F0D5F8B02000F0D2F8E6
:1013D000C82000F0CFF8002000F0CCF8102000F07A
:1013E000C9F8402000F0C6F8812000F0C3F8FF20C3
:1013F00000F0C0F8A12000F0BDF8A62000F0BAF877
:10140000A82000F0B7F83F2000F0B4F8A42000F0C6
:10141000B1F8D32000F0AEF8002000F0ABF8D520F2
:1014200000F0A8F8F02000F0A5F8D92000F0A2F80C
:10143000222000F09FF8DA2000F09CF8122000F043
:1014400099F8DB2000F096F8202000F093F88D202A
:1014500000F090F8142000F08DF8AF2000F08AF82A
:101460000020FFF795FF00F011F8044800210180EB
:10147000418001214171084610BD00000C00002090
:10148000014A1080518070470C000020FEB50024F6
:1014900064250F4F802600BF04F1B000C0B200F0F9
:1014A00069F8002000F066F8102000F063F807EB00
:1014B000C410CDE900060123402278210295054899
:1014C000FFF706F9641CE4B2082CE5D3FEBD00006A
:1014D00078000020240000202DE9FF4F8346244897
:1014E0009246CEB202883244802A06D28146408893
:1014F000C1F307273844402803D3002004B0BDE8D7
:10150000F08F002528E000BFABF1200010FB075052
:101510003AF8108000241CE008FA04F0000409D511
:1015200099F8021099F8000029442044C9B2C0B2C9
:10153000039A0BE00398C0B15FF0000299F8021023
:1015400099F8000029442044C9B2C0B2FFF700FF57
:10155000641CA642E0D86D1CAF42D5D8B9F8001083
:1015600058463144A9F80010C8E70122E6E7000018
:101570000C00002001B584B001210A2204A88DE8E6
:1015800007000B46002278210248FFF7A1F805B0BA
:1015900000BD000024000020F0B51D460E46174691
:1015A00004460AE02B463A463146FFF795FF21787C
:1015B000884201D0C8B2F0BD641C20780028F1D167
:1015C000C0B2F0BD000000000000000000000000FC
:1015D000000000000000000000000000000000000B
:1015E00000000000000000000000000C000C000CD7
:1015F000000C000C000C000C000C000C000C000C8B
:101600000000000C000C0000000000000000001BA7
:10161000001B001B001B001B00000000000000005E
:1016200000000000000000000000000000000000BA
:1016300000008019801980198019C07FC07F80192F
:101640000033C07FC07F003300330033003300001D
:10165000000000000000001E003F807580650074DF
:10166000003C001E00078005806580658075003F96
:10167000001E0004000400000000007000D840D8E4
:10168000C0D880D900730006000C801BC036C0662D
:10169000C046C00680030000000000000000001EDD
:1016A000003F003300330033001E000CC03CC06616
:1016B000806380618063C03E801C000000000000E9
:1016C0000000000C000C000C000C000C00000000DE
:1016D000000000000000000000000000000000000A
:1016E0000000000080000001000300060006000466
:1016F000000C000C000C000C000C000C0004000698
:101700000006000300018000002000100018000CFB
:10171000000C000400060006000600060006000695
:101720000004000C000C0018001000200000000C49
:10173000002D003F001E00330000000000000000EC
:101740000000000000000000000000000000000099
:10175000000000000000000C000C000C000CC0FF9A
:10176000C0FF000C000C000C000C0000000000008A
:101770000000000000000000000000000000000069
:101780000000000000000000000000000000000C4D
:10179000000C00040004000800000000000000002D
:1017A00000000000000000000000001E001E0000FD
:1017B0000000000000000000000000000000000029
:1017C0000000000000000000000000000000000019
:1017D000000000000000000C000C000000000000F1
:1017E00000000003000300030006000600060006D8
:1017F000000C000C000C000C001800180018000071
:10180000000000000000001E003F00338061806186
:101810008061806D806D8061806180610033003FF8
:10182000001E00000000000000000006000E001E68
:101830000036002600060006000600060006000628
:101840000006000600060000000000000000001E68
:10185000003F807380618061800100030006000CFE
:10186000001800300060807F807F000000000000D2
:101870000000001C003E006300630003000E000E29
:1018800000038001800180618073003F001E000022
:101890000000000000000006000E000E001E001EEA
:1018A0000016003600360066807F807F0006000646
:1018B00000060000000000000000007F007F0060C4
:1018C00000600060006E007F8063800180018061A5
:1018D0008073003F001E0000000000000000001E9A
:1018E000003F803380610060006E007F8073806104
:1018F000806180618033003F001E00000000000016
:101900000000807F807F8001000300030006000646
:10191000000C000C000C0008001800180018000053
:10192000000000000000001E003F806380618061B5
:101930000021001E003F8061806180618061003F66
:10194000001E0000000000000000001E003F0073A9
:101950008061806180618073803F801D8001806133
:101960000073003F001E00000000000000000000A7
:10197000000000000000000C000C0000000000004F
:10198000000000000000000C000C0000000000003F
:10199000000000000000000000000000000C000C2F
:1019A00000000000000000000000000C000C00041B
:1019B0000004000800000000000000008000800318
:1019C000000E003800600038000E80038000000028
:1019D0000000000000000000000000000000000007
:1019E0000000807F807F00000000807F807F0000FB
:1019F00000000000000000000000000000000000E7
:101A00000000000000400070001C0007800100077B
:101A1000001C0070004000000000000000000000FA
:101A20000000001F803FC071C060C000C001800383
:101A30000007000E000C000C0000000C000C000061
:101A4000000000000000001E003F803180718063B4
:101A5000806F806D806D806F806700600032003E17
:101A6000001C0000000000000000000E000E001B23
:101A7000001B001B001B80318031803F803F803184
:101A8000C060C060C0600000000000000000007C7A
:101A9000007E0063006300630063007E007E0063DD
:101AA000806180618063007F007E00000000000094
:101AB0000000001E003F8031806100600060006017
:101AC00000600060006080618031003F001E000007
:101AD000000000000000007C007F006380638061E4
:101AE0008061806180618061806100630063007E4D
:101AF000007C0000000000000000807F807F00600C
:101B0000006000600060007F007F00600060006097
:101B10000060807F807F0000000000000000807F68
:101B2000807F0060006000600060007F007F0060D8
:101B300000600060006000600060000000000000C5
:101B40000000001E003F8031806100600060006086
:101B500080638063806180618031803F001E00006F
:101B60000000000000008061806180618061806110
:101B70008061807F807F8061806180618061806121
:101B800080610000000000000000003F003F000CEA
:101B9000000C000C000C000C000C000C000C000CE5
:101BA000000C003F003F000000000000000080012A
:101BB000800180018001800180018001800180011D
:101BC000806180618073003F001E00000000000003
:101BD0000000C0608061006300660066006C0078F1
:101BE000007C00660066006380618061C060000068
:101BF0000000000000000060006000600060006005
:101C00000060006000600060006000600060807F35
:101C1000807F0000000000000000C071C071C07B28
:101C2000C07AC06AC06AC06EC064C060C060C06074
:101C3000C060C060C0600000000000000000807153
:101C40008071807980798079806D806D806D80650C
:101C50008067806780678063806300000000000009
:101C60000000001E003F0033806180618061806160
:101C700080618061806180610033003F001E000050
:101C8000000000000000007E007F806380618061B2
:101C900080618063007F007E006000600060006003
:101CA00000600000000000000000001E003F003344
:101CB0008061806180618061806180618065806712
:101CC0000033803F401E0000000000000000007E46
:101CD000007F8063806180618063007F007E00669A
:101CE0000063006380618061C0600000000000004C
:101CF0000000000E001F8031803100300038001ECF
:101D000000078003806180618031003F001E000079
:101D1000000000000000C0FFC0FF000C000C000C21
:101D2000000C000C000C000C000C000C000C000C53
:101D3000000C0000000000000000806180618061F4
:101D4000806180618061806180618061806180618B
:101D50008073003F001E0000000000000000C06013
:101D6000C060C060803180318031001B001B001BCF
:101D7000001B000E000E000E00040000000000001A
:101D80000000C0C0C0C0C0C0C0C0C0C0C0CC804C7B
:101D9000804C805E80528052807380618061000040
:101DA000000000000000C0C0806080610033003B84
:101DB000001E000C000C001E001F003B80718061A3
:101DC000C0C00000000000000000C0C08061806151
:101DD00000330033001E001E000C000C000C000C31
:101DE000000C000C000C0000000000000000803F10
:101DF000803F8001000300030006000C000C001867
:101E0000001800300060807F807F0000000000002C
:101E1000000F000F000C000C000C000C000C000C5C
:101E2000000C000C000C000C000C000C000C000C52
:101E3000000F000F0000001800180018000C000C24
:101E4000000C000C0006000600060006000300035C
:101E50000003000000000000001E001E0006000637
:101E60000006000600060006000600060006000642
:101E70000006000600060006001E001E0000000C02
:101E8000000C001E001200330033806180610000EE
:101E90000000000000000000000000000000000042
:101EA0000000000000000000000000000000000032
:101EB0000000000000000000000000000000000022
:101EC000E0FF0000000000380018000C00000000D7
:101ED0000000000000000000000000000000000002
:101EE00000000000000000000000000000000000F2
:101EF0000000001F803F80618001801F803F806163
:101F00008063807FC0380000000000000000006097
:101F1000006000600060006E007F807380618061FF
:101F2000806180618073007F006E0000000000000F
:101F300000000000000000000000001E003F807351
:101F400080610060006080618073003F001E0000BF
:101F50000000000000008001800180018001801DE0
:101F6000803F807380618061806180618073803F89
:101F7000801D0000000000000000000000000000C4
:101F80000000001E003F00738061807F807F006042
:101F90008071003F001E0000000000000000C0072C
:101FA000C00F000C000C807F807F000C000C000C28
:101FB000000C000C000C000C000C000000000000E5
:101FC0000000000000000000801D803F80738061E1
:101FD0008061806180618073803F801D80018063AB
:101FE000007F003E00000060006000600060006F45
:101FF000807F8071806180618061806180618061AB
:1020000080610000000000000000000600060000E3
:102010000000003E003E0006000600060006000626
:102020000006000600060000000000000006000692
:1020300000000000003E003E00060006000600060C
:10204000000600060006000600060046007E003C72
:102050000000006000600060006080610063006656
:10206000006C007C0076006300638061C06000004B
:10207000000000000000003E003E000600060006D2
:102080000006000600060006000600060006000620
:10209000000600000000000000000000000000003A
:1020A000000080DDC0FFC0CEC0CCC0CCC0CCC0CC56
:1020B000C0CCC0CCC0CC000000000000000000007C
:1020C000000000000000006F807F807180618061EF
:1020D000806180618061806180610000000000009B
:1020E00000000000000000000000001E003F8073A0
:1020F00080618061806180618073003F001E00000C
:10210000000000000000000000000000006E007FE2
:10211000807380618061806180618073007F006E68
:10212000006000600060006000000000000000002F
:10213000801D803F807380618061806180618073D9
:10214000803F801D8001800180018001000000002F
:102150000000000000000067803F003900300030C0
:10216000003000300030003000300000000000007F
:1021700000000000000000000000001E803F8061A1
:102180000060007F803F80018061007F001E0000B2
:102190000000000000000000000800180018007F88
:1021A000007F001800180018001800180018801F81
:1021B000800F000000000000000000000000000090
:1021C00000008061806180618061806180618061E8
:1021D0008063807F803D0000000000000000000060
:1021E000000000000000C060803180318031001BA1
:1021F000001B001B000E000E000600000000000087
:102200000000000000000000000080DD80DD80DDB7
:10221000005500550055007700770022002200008D
:1022200000000000000000000000000000008061CD
:1022300000330033001E000C000C001E003300337E
:1022400080610000000000000000000000000000AD
:1022500080618061803100330033001B001B001B54
:10226000000E000E000E001C007C0070000000003C
:10227000000000000000C07FC07F80010003000656
:10228000000C00180030C07FC07F0000000000007C
:102290008003800700060006000600060006000E08
:1022A000001C001C000E00060006000600060006CA
:1022B00080078003000600060006000600060006F0
:1022C00000060006000600060006000600060006DE
:1022D00000060006000600060038003C000C000C5A
:1022E000000C000C000C000E00070007000E000C94
:1022F000000C000C000C000C003C0038000000003A
:10230000000000000000000000008038807F0047CF
:1023100000000000000000000000000000000000BD
:102320000000000000000000010203040607080985
:1023300000000000010203045823000800000020F0
:10234000240000008A1200087C23000824000020DA
:10235000540800009A120008000000000B12000050
:10236000C41500080000000000000000010000008B
:0C23700010000000000000000024F40039
:040000050800018965
:00000001FF
